{
  "_format": "hh-sol-artifact-1",
  "contractName": "NFTokenMetadataBaseUriMock",
  "sourceName": "contracts/src/contracts/mocks/nf-token-metadata-base-uri-mock.sol",
  "abi": [
    {
      "inputs": [
        {
          "internalType": "string",
          "name": "_name",
          "type": "string"
        },
        {
          "internalType": "string",
          "name": "_symbol",
          "type": "string"
        },
        {
          "internalType": "string",
          "name": "_baseURI",
          "type": "string"
        }
      ],
      "stateMutability": "nonpayable",
      "type": "constructor"
    },
    {
      "anonymous": false,
      "inputs": [
        {
          "indexed": true,
          "internalType": "address",
          "name": "_owner",
          "type": "address"
        },
        {
          "indexed": true,
          "internalType": "address",
          "name": "_approved",
          "type": "address"
        },
        {
          "indexed": true,
          "internalType": "uint256",
          "name": "_tokenId",
          "type": "uint256"
        }
      ],
      "name": "Approval",
      "type": "event"
    },
    {
      "anonymous": false,
      "inputs": [
        {
          "indexed": true,
          "internalType": "address",
          "name": "_owner",
          "type": "address"
        },
        {
          "indexed": true,
          "internalType": "address",
          "name": "_operator",
          "type": "address"
        },
        {
          "indexed": false,
          "internalType": "bool",
          "name": "_approved",
          "type": "bool"
        }
      ],
      "name": "ApprovalForAll",
      "type": "event"
    },
    {
      "anonymous": false,
      "inputs": [
        {
          "indexed": true,
          "internalType": "address",
          "name": "previousOwner",
          "type": "address"
        },
        {
          "indexed": true,
          "internalType": "address",
          "name": "newOwner",
          "type": "address"
        }
      ],
      "name": "OwnershipTransferred",
      "type": "event"
    },
    {
      "anonymous": false,
      "inputs": [
        {
          "indexed": true,
          "internalType": "address",
          "name": "_from",
          "type": "address"
        },
        {
          "indexed": true,
          "internalType": "address",
          "name": "_to",
          "type": "address"
        },
        {
          "indexed": true,
          "internalType": "uint256",
          "name": "_tokenId",
          "type": "uint256"
        }
      ],
      "name": "Transfer",
      "type": "event"
    },
    {
      "inputs": [],
      "name": "CANNOT_TRANSFER_TO_ZERO_ADDRESS",
      "outputs": [
        {
          "internalType": "string",
          "name": "",
          "type": "string"
        }
      ],
      "stateMutability": "view",
      "type": "function"
    },
    {
      "inputs": [],
      "name": "NOT_CURRENT_OWNER",
      "outputs": [
        {
          "internalType": "string",
          "name": "",
          "type": "string"
        }
      ],
      "stateMutability": "view",
      "type": "function"
    },
    {
      "inputs": [
        {
          "internalType": "address",
          "name": "_approved",
          "type": "address"
        },
        {
          "internalType": "uint256",
          "name": "_tokenId",
          "type": "uint256"
        }
      ],
      "name": "approve",
      "outputs": [],
      "stateMutability": "nonpayable",
      "type": "function"
    },
    {
      "inputs": [
        {
          "internalType": "address",
          "name": "_owner",
          "type": "address"
        }
      ],
      "name": "balanceOf",
      "outputs": [
        {
          "internalType": "uint256",
          "name": "",
          "type": "uint256"
        }
      ],
      "stateMutability": "view",
      "type": "function"
    },
    {
      "inputs": [],
      "name": "baseURI",
      "outputs": [
        {
          "internalType": "string",
          "name": "",
          "type": "string"
        }
      ],
      "stateMutability": "view",
      "type": "function"
    },
    {
      "inputs": [
        {
          "internalType": "uint256",
          "name": "_tokenId",
          "type": "uint256"
        }
      ],
      "name": "burn",
      "outputs": [],
      "stateMutability": "nonpayable",
      "type": "function"
    },
    {
      "inputs": [
        {
          "internalType": "uint256",
          "name": "_tokenId",
          "type": "uint256"
        }
      ],
      "name": "getApproved",
      "outputs": [
        {
          "internalType": "address",
          "name": "",
          "type": "address"
        }
      ],
      "stateMutability": "view",
      "type": "function"
    },
    {
      "inputs": [
        {
          "internalType": "address",
          "name": "_owner",
          "type": "address"
        },
        {
          "internalType": "address",
          "name": "_operator",
          "type": "address"
        }
      ],
      "name": "isApprovedForAll",
      "outputs": [
        {
          "internalType": "bool",
          "name": "",
          "type": "bool"
        }
      ],
      "stateMutability": "view",
      "type": "function"
    },
    {
      "inputs": [
        {
          "internalType": "address",
          "name": "_to",
          "type": "address"
        },
        {
          "internalType": "uint256",
          "name": "_tokenId",
          "type": "uint256"
        }
      ],
      "name": "mint",
      "outputs": [],
      "stateMutability": "nonpayable",
      "type": "function"
    },
    {
      "inputs": [],
      "name": "name",
      "outputs": [
        {
          "internalType": "string",
          "name": "_name",
          "type": "string"
        }
      ],
      "stateMutability": "view",
      "type": "function"
    },
    {
      "inputs": [],
      "name": "owner",
      "outputs": [
        {
          "internalType": "address",
          "name": "",
          "type": "address"
        }
      ],
      "stateMutability": "view",
      "type": "function"
    },
    {
      "inputs": [
        {
          "internalType": "uint256",
          "name": "_tokenId",
          "type": "uint256"
        }
      ],
      "name": "ownerOf",
      "outputs": [
        {
          "internalType": "address",
          "name": "_owner",
          "type": "address"
        }
      ],
      "stateMutability": "view",
      "type": "function"
    },
    {
      "inputs": [
        {
          "internalType": "address",
          "name": "_from",
          "type": "address"
        },
        {
          "internalType": "address",
          "name": "_to",
          "type": "address"
        },
        {
          "internalType": "uint256",
          "name": "_tokenId",
          "type": "uint256"
        }
      ],
      "name": "safeTransferFrom",
      "outputs": [],
      "stateMutability": "nonpayable",
      "type": "function"
    },
    {
      "inputs": [
        {
          "internalType": "address",
          "name": "_from",
          "type": "address"
        },
        {
          "internalType": "address",
          "name": "_to",
          "type": "address"
        },
        {
          "internalType": "uint256",
          "name": "_tokenId",
          "type": "uint256"
        },
        {
          "internalType": "bytes",
          "name": "_data",
          "type": "bytes"
        }
      ],
      "name": "safeTransferFrom",
      "outputs": [],
      "stateMutability": "nonpayable",
      "type": "function"
    },
    {
      "inputs": [
        {
          "internalType": "address",
          "name": "_operator",
          "type": "address"
        },
        {
          "internalType": "bool",
          "name": "_approved",
          "type": "bool"
        }
      ],
      "name": "setApprovalForAll",
      "outputs": [],
      "stateMutability": "nonpayable",
      "type": "function"
    },
    {
      "inputs": [
        {
          "internalType": "bytes4",
          "name": "_interfaceID",
          "type": "bytes4"
        }
      ],
      "name": "supportsInterface",
      "outputs": [
        {
          "internalType": "bool",
          "name": "",
          "type": "bool"
        }
      ],
      "stateMutability": "view",
      "type": "function"
    },
    {
      "inputs": [],
      "name": "symbol",
      "outputs": [
        {
          "internalType": "string",
          "name": "_symbol",
          "type": "string"
        }
      ],
      "stateMutability": "view",
      "type": "function"
    },
    {
      "inputs": [
        {
          "internalType": "uint256",
          "name": "_tokenId",
          "type": "uint256"
        }
      ],
      "name": "tokenURI",
      "outputs": [
        {
          "internalType": "string",
          "name": "",
          "type": "string"
        }
      ],
      "stateMutability": "view",
      "type": "function"
    },
    {
      "inputs": [
        {
          "internalType": "address",
          "name": "_from",
          "type": "address"
        },
        {
          "internalType": "address",
          "name": "_to",
          "type": "address"
        },
        {
          "internalType": "uint256",
          "name": "_tokenId",
          "type": "uint256"
        }
      ],
      "name": "transferFrom",
      "outputs": [],
      "stateMutability": "nonpayable",
      "type": "function"
    },
    {
      "inputs": [
        {
          "internalType": "address",
          "name": "_newOwner",
          "type": "address"
        }
      ],
      "name": "transferOwnership",
      "outputs": [],
      "stateMutability": "nonpayable",
      "type": "function"
    }
  ],
  "bytecode": "0x60806040523480156200001157600080fd5b50604051620037e9380380620037e98339818101604052810190620000379190620002ed565b60016000806301ffc9a760e01b7bffffffffffffffffffffffffffffffffffffffffffffffffffffffff1916815260200190815260200160002060006101000a81548160ff02191690831515021790555060016000806380ac58cd60e01b7bffffffffffffffffffffffffffffffffffffffffffffffffffffffff1916815260200190815260200160002060006101000a81548160ff0219169083151502179055506001600080635b5e139f60e01b7bffffffffffffffffffffffffffffffffffffffffffffffffffffffff1916815260200190815260200160002060006101000a81548160ff02191690831515021790555033600860006101000a81548173ffffffffffffffffffffffffffffffffffffffff021916908373ffffffffffffffffffffffffffffffffffffffff160217905550826005908051906020019062000183929190620001bf565b5081600690805190602001906200019c929190620001bf565b508060099080519060200190620001b5929190620001bf565b505050506200052a565b828054620001cd906200043b565b90600052602060002090601f016020900481019282620001f157600085556200023d565b82601f106200020c57805160ff19168380011785556200023d565b828001600101855582156200023d579182015b828111156200023c5782518255916020019190600101906200021f565b5b5090506200024c919062000250565b5090565b5b808211156200026b57600081600090555060010162000251565b5090565b6000620002866200028084620003cf565b620003a6565b905082815260208101848484011115620002a557620002a46200050a565b5b620002b284828562000405565b509392505050565b600082601f830112620002d257620002d162000505565b5b8151620002e48482602086016200026f565b91505092915050565b60008060006060848603121562000309576200030862000514565b5b600084015167ffffffffffffffff8111156200032a57620003296200050f565b5b6200033886828701620002ba565b935050602084015167ffffffffffffffff8111156200035c576200035b6200050f565b5b6200036a86828701620002ba565b925050604084015167ffffffffffffffff8111156200038e576200038d6200050f565b5b6200039c86828701620002ba565b9150509250925092565b6000620003b2620003c5565b9050620003c0828262000471565b919050565b6000604051905090565b600067ffffffffffffffff821115620003ed57620003ec620004d6565b5b620003f88262000519565b9050602081019050919050565b60005b838110156200042557808201518184015260208101905062000408565b8381111562000435576000848401525b50505050565b600060028204905060018216806200045457607f821691505b602082108114156200046b576200046a620004a7565b5b50919050565b6200047c8262000519565b810181811067ffffffffffffffff821117156200049e576200049d620004d6565b5b80604052505050565b7f4e487b7100000000000000000000000000000000000000000000000000000000600052602260045260246000fd5b7f4e487b7100000000000000000000000000000000000000000000000000000000600052604160045260246000fd5b600080fd5b600080fd5b600080fd5b600080fd5b6000601f19601f8301169050919050565b6132af806200053a6000396000f3fe608060405234801561001057600080fd5b506004361061012c5760003560e01c806370a08231116100ad578063b88d4fde11610071578063b88d4fde1461032f578063c87b56dd1461034b578063e985e9c51461037b578063f2fde38b146103ab578063f3fe3bc3146103c75761012c565b806370a0823114610289578063860d248a146102b95780638da5cb5b146102d757806395d89b41146102f5578063a22cb465146103135761012c565b806340c10f19116100f457806340c10f19146101e757806342842e0e1461020357806342966c681461021f5780636352211e1461023b5780636c0360eb1461026b5761012c565b806301ffc9a71461013157806306fdde0314610161578063081812fc1461017f578063095ea7b3146101af57806323b872dd146101cb575b600080fd5b61014b60048036038101906101469190612b2d565b6103e5565b6040516101589190612db1565b60405180910390f35b61016961044c565b6040516101769190612dcc565b60405180910390f35b61019960048036038101906101949190612b87565b6104de565b6040516101a69190612d4a565b60405180910390f35b6101c960048036038101906101c49190612aed565b6105f9565b005b6101e560048036038101906101e091906129d2565b6109dc565b005b61020160048036038101906101fc9190612aed565b610e2e565b005b61021d600480360381019061021891906129d2565b610f05565b005b61023960048036038101906102349190612b87565b610f25565b005b61025560048036038101906102509190612b87565b610ffa565b6040516102629190612d4a565b60405180910390f35b6102736110e0565b6040516102809190612dcc565b60405180910390f35b6102a3600480360381019061029e9190612965565b61116e565b6040516102b09190612e0e565b60405180910390f35b6102c1611228565b6040516102ce9190612dcc565b60405180910390f35b6102df611261565b6040516102ec9190612d4a565b60405180910390f35b6102fd611287565b60405161030a9190612dcc565b60405180910390f35b61032d60048036038101906103289190612aad565b611319565b005b61034960048036038101906103449190612a25565b611416565b005b61036560048036038101906103609190612b87565b61146d565b6040516103729190612dcc565b60405180910390f35b61039560048036038101906103909190612992565b61155d565b6040516103a29190612db1565b60405180910390f35b6103c560048036038101906103c09190612965565b6115f1565b005b6103cf611823565b6040516103dc9190612dcc565b60405180910390f35b6000806000837bffffffffffffffffffffffffffffffffffffffffffffffffffffffff19167bffffffffffffffffffffffffffffffffffffffffffffffffffffffff1916815260200190815260200160002060009054906101000a900460ff169050919050565b60606005805461045b9061300d565b80601f01602080910402602001604051908101604052809291908181526020018280546104879061300d565b80156104d45780601f106104a9576101008083540402835291602001916104d4565b820191906000526020600020905b8154815290600101906020018083116104b757829003601f168201915b5050505050905090565b600081600073ffffffffffffffffffffffffffffffffffffffff166001600083815260200190815260200160002060009054906101000a900473ffffffffffffffffffffffffffffffffffffffff1673ffffffffffffffffffffffffffffffffffffffff1614156040518060400160405280600681526020017f3030333030320000000000000000000000000000000000000000000000000000815250906105bc576040517f08c379a00000000000000000000000000000000000000000000000000000000081526004016105b39190612dcc565b60405180910390fd5b506002600084815260200190815260200160002060009054906101000a900473ffffffffffffffffffffffffffffffffffffffff16915050919050565b8060006001600083815260200190815260200160002060009054906101000a900473ffffffffffffffffffffffffffffffffffffffff1690503373ffffffffffffffffffffffffffffffffffffffff168173ffffffffffffffffffffffffffffffffffffffff1614806106f25750600460008273ffffffffffffffffffffffffffffffffffffffff1673ffffffffffffffffffffffffffffffffffffffff16815260200190815260200160002060003373ffffffffffffffffffffffffffffffffffffffff1673ffffffffffffffffffffffffffffffffffffffff16815260200190815260200160002060009054906101000a900460ff165b6040518060400160405280600681526020017f303033303033000000000000000000000000000000000000000000000000000081525090610769576040517f08c379a00000000000000000000000000000000000000000000000000000000081526004016107609190612dcc565b60405180910390fd5b5082600073ffffffffffffffffffffffffffffffffffffffff166001600083815260200190815260200160002060009054906101000a900473ffffffffffffffffffffffffffffffffffffffff1673ffffffffffffffffffffffffffffffffffffffff1614156040518060400160405280600681526020017f303033303032000000000000000000000000000000000000000000000000000081525090610846576040517f08c379a000000000000000000000000000000000000000000000000000000000815260040161083d9190612dcc565b60405180910390fd5b5060006001600086815260200190815260200160002060009054906101000a900473ffffffffffffffffffffffffffffffffffffffff1690508073ffffffffffffffffffffffffffffffffffffffff168673ffffffffffffffffffffffffffffffffffffffff1614156040518060400160405280600681526020017f303033303038000000000000000000000000000000000000000000000000000081525090610926576040517f08c379a000000000000000000000000000000000000000000000000000000000815260040161091d9190612dcc565b60405180910390fd5b50856002600087815260200190815260200160002060006101000a81548173ffffffffffffffffffffffffffffffffffffffff021916908373ffffffffffffffffffffffffffffffffffffffff160217905550848673ffffffffffffffffffffffffffffffffffffffff168273ffffffffffffffffffffffffffffffffffffffff167f8c5be1e5ebec7d5bd14f71427d1e84f3dd0314c0f7b2291e5b200ac8c7c3b92560405160405180910390a4505050505050565b8060006001600083815260200190815260200160002060009054906101000a900473ffffffffffffffffffffffffffffffffffffffff1690503373ffffffffffffffffffffffffffffffffffffffff168173ffffffffffffffffffffffffffffffffffffffff161480610aad57503373ffffffffffffffffffffffffffffffffffffffff166002600084815260200190815260200160002060009054906101000a900473ffffffffffffffffffffffffffffffffffffffff1673ffffffffffffffffffffffffffffffffffffffff16145b80610b3e5750600460008273ffffffffffffffffffffffffffffffffffffffff1673ffffffffffffffffffffffffffffffffffffffff16815260200190815260200160002060003373ffffffffffffffffffffffffffffffffffffffff1673ffffffffffffffffffffffffffffffffffffffff16815260200190815260200160002060009054906101000a900460ff165b6040518060400160405280600681526020017f303033303034000000000000000000000000000000000000000000000000000081525090610bb5576040517f08c379a0000000000000000000000000000000000000000000000000000000008152600401610bac9190612dcc565b60405180910390fd5b5082600073ffffffffffffffffffffffffffffffffffffffff166001600083815260200190815260200160002060009054906101000a900473ffffffffffffffffffffffffffffffffffffffff1673ffffffffffffffffffffffffffffffffffffffff1614156040518060400160405280600681526020017f303033303032000000000000000000000000000000000000000000000000000081525090610c92576040517f08c379a0000000000000000000000000000000000000000000000000000000008152600401610c899190612dcc565b60405180910390fd5b5060006001600086815260200190815260200160002060009054906101000a900473ffffffffffffffffffffffffffffffffffffffff1690508673ffffffffffffffffffffffffffffffffffffffff168173ffffffffffffffffffffffffffffffffffffffff16146040518060400160405280600681526020017f303033303037000000000000000000000000000000000000000000000000000081525090610d71576040517f08c379a0000000000000000000000000000000000000000000000000000000008152600401610d689190612dcc565b60405180910390fd5b50600073ffffffffffffffffffffffffffffffffffffffff168673ffffffffffffffffffffffffffffffffffffffff1614156040518060400160405280600681526020017f303033303031000000000000000000000000000000000000000000000000000081525090610e1a576040517f08c379a0000000000000000000000000000000000000000000000000000000008152600401610e119190612dcc565b60405180910390fd5b50610e25868661185c565b50505050505050565b600860009054906101000a900473ffffffffffffffffffffffffffffffffffffffff1673ffffffffffffffffffffffffffffffffffffffff163373ffffffffffffffffffffffffffffffffffffffff16146040518060400160405280600681526020017f303138303031000000000000000000000000000000000000000000000000000081525090610ef6576040517f08c379a0000000000000000000000000000000000000000000000000000000008152600401610eed9190612dcc565b60405180910390fd5b50610f018282611952565b5050565b610f2083838360405180602001604052806000815250611b40565b505050565b600860009054906101000a900473ffffffffffffffffffffffffffffffffffffffff1673ffffffffffffffffffffffffffffffffffffffff163373ffffffffffffffffffffffffffffffffffffffff16146040518060400160405280600681526020017f303138303031000000000000000000000000000000000000000000000000000081525090610fed576040517f08c379a0000000000000000000000000000000000000000000000000000000008152600401610fe49190612dcc565b60405180910390fd5b50610ff78161210e565b50565b60006001600083815260200190815260200160002060009054906101000a900473ffffffffffffffffffffffffffffffffffffffff169050600073ffffffffffffffffffffffffffffffffffffffff168173ffffffffffffffffffffffffffffffffffffffff1614156040518060400160405280600681526020017f3030333030320000000000000000000000000000000000000000000000000000815250906110da576040517f08c379a00000000000000000000000000000000000000000000000000000000081526004016110d19190612dcc565b60405180910390fd5b50919050565b600980546110ed9061300d565b80601f01602080910402602001604051908101604052809291908181526020018280546111199061300d565b80156111665780601f1061113b57610100808354040283529160200191611166565b820191906000526020600020905b81548152906001019060200180831161114957829003601f168201915b505050505081565b60008073ffffffffffffffffffffffffffffffffffffffff168273ffffffffffffffffffffffffffffffffffffffff1614156040518060400160405280600681526020017f303033303031000000000000000000000000000000000000000000000000000081525090611217576040517f08c379a000000000000000000000000000000000000000000000000000000000815260040161120e9190612dcc565b60405180910390fd5b5061122182612139565b9050919050565b6040518060400160405280600681526020017f303138303032000000000000000000000000000000000000000000000000000081525081565b600860009054906101000a900473ffffffffffffffffffffffffffffffffffffffff1681565b6060600680546112969061300d565b80601f01602080910402602001604051908101604052809291908181526020018280546112c29061300d565b801561130f5780601f106112e45761010080835404028352916020019161130f565b820191906000526020600020905b8154815290600101906020018083116112f257829003601f168201915b5050505050905090565b80600460003373ffffffffffffffffffffffffffffffffffffffff1673ffffffffffffffffffffffffffffffffffffffff16815260200190815260200160002060008473ffffffffffffffffffffffffffffffffffffffff1673ffffffffffffffffffffffffffffffffffffffff16815260200190815260200160002060006101000a81548160ff0219169083151502179055508173ffffffffffffffffffffffffffffffffffffffff163373ffffffffffffffffffffffffffffffffffffffff167f17307eab39ab6107e8899845ad3d59bd9653f200f220920489ca2b5937696c318360405161140a9190612db1565b60405180910390a35050565b61146685858585858080601f016020809104026020016040519081016040528093929190818152602001838380828437600081840152601f19601f82011690508083019250505050505050611b40565b5050505050565b606081600073ffffffffffffffffffffffffffffffffffffffff166001600083815260200190815260200160002060009054906101000a900473ffffffffffffffffffffffffffffffffffffffff1673ffffffffffffffffffffffffffffffffffffffff1614156040518060400160405280600681526020017f30303330303200000000000000000000000000000000000000000000000000008152509061154b576040517f08c379a00000000000000000000000000000000000000000000000000000000081526004016115429190612dcc565b60405180910390fd5b5061155583612182565b915050919050565b6000600460008473ffffffffffffffffffffffffffffffffffffffff1673ffffffffffffffffffffffffffffffffffffffff16815260200190815260200160002060008373ffffffffffffffffffffffffffffffffffffffff1673ffffffffffffffffffffffffffffffffffffffff16815260200190815260200160002060009054906101000a900460ff16905092915050565b600860009054906101000a900473ffffffffffffffffffffffffffffffffffffffff1673ffffffffffffffffffffffffffffffffffffffff163373ffffffffffffffffffffffffffffffffffffffff16146040518060400160405280600681526020017f3031383030310000000000000000000000000000000000000000000000000000815250906116b9576040517f08c379a00000000000000000000000000000000000000000000000000000000081526004016116b09190612dcc565b60405180910390fd5b50600073ffffffffffffffffffffffffffffffffffffffff168173ffffffffffffffffffffffffffffffffffffffff1614156040518060400160405280600681526020017f303138303032000000000000000000000000000000000000000000000000000081525090611762576040517f08c379a00000000000000000000000000000000000000000000000000000000081526004016117599190612dcc565b60405180910390fd5b508073ffffffffffffffffffffffffffffffffffffffff16600860009054906101000a900473ffffffffffffffffffffffffffffffffffffffff1673ffffffffffffffffffffffffffffffffffffffff167f8be0079c531659141344cd1fd0a4f28419497f9722a3daafe3b4186f6b6457e060405160405180910390a380600860006101000a81548173ffffffffffffffffffffffffffffffffffffffff021916908373ffffffffffffffffffffffffffffffffffffffff16021790555050565b6040518060400160405280600681526020017f303138303031000000000000000000000000000000000000000000000000000081525081565b600061189d576040517f08c379a000000000000000000000000000000000000000000000000000000000815260040161189490612dee565b60405180910390fd5b60006001600083815260200190815260200160002060009054906101000a900473ffffffffffffffffffffffffffffffffffffffff1690506118de826121e2565b6118e8818361221b565b6118f28383612386565b818373ffffffffffffffffffffffffffffffffffffffff168273ffffffffffffffffffffffffffffffffffffffff167fddf252ad1be2c89b69c2b068fc378daa952ba7f163c4a11628f55a4df523b3ef60405160405180910390a4505050565b600073ffffffffffffffffffffffffffffffffffffffff168273ffffffffffffffffffffffffffffffffffffffff1614156040518060400160405280600681526020017f3030333030310000000000000000000000000000000000000000000000000000815250906119fa576040517f08c379a00000000000000000000000000000000000000000000000000000000081526004016119f19190612dcc565b60405180910390fd5b50600073ffffffffffffffffffffffffffffffffffffffff166001600083815260200190815260200160002060009054906101000a900473ffffffffffffffffffffffffffffffffffffffff1673ffffffffffffffffffffffffffffffffffffffff16146040518060400160405280600681526020017f303033303036000000000000000000000000000000000000000000000000000081525090611ad5576040517f08c379a0000000000000000000000000000000000000000000000000000000008152600401611acc9190612dcc565b60405180910390fd5b50611ae08282612386565b808273ffffffffffffffffffffffffffffffffffffffff16600073ffffffffffffffffffffffffffffffffffffffff167fddf252ad1be2c89b69c2b068fc378daa952ba7f163c4a11628f55a4df523b3ef60405160405180910390a45050565b8160006001600083815260200190815260200160002060009054906101000a900473ffffffffffffffffffffffffffffffffffffffff1690503373ffffffffffffffffffffffffffffffffffffffff168173ffffffffffffffffffffffffffffffffffffffff161480611c1157503373ffffffffffffffffffffffffffffffffffffffff166002600084815260200190815260200160002060009054906101000a900473ffffffffffffffffffffffffffffffffffffffff1673ffffffffffffffffffffffffffffffffffffffff16145b80611ca25750600460008273ffffffffffffffffffffffffffffffffffffffff1673ffffffffffffffffffffffffffffffffffffffff16815260200190815260200160002060003373ffffffffffffffffffffffffffffffffffffffff1673ffffffffffffffffffffffffffffffffffffffff16815260200190815260200160002060009054906101000a900460ff165b6040518060400160405280600681526020017f303033303034000000000000000000000000000000000000000000000000000081525090611d19576040517f08c379a0000000000000000000000000000000000000000000000000000000008152600401611d109190612dcc565b60405180910390fd5b5083600073ffffffffffffffffffffffffffffffffffffffff166001600083815260200190815260200160002060009054906101000a900473ffffffffffffffffffffffffffffffffffffffff1673ffffffffffffffffffffffffffffffffffffffff1614156040518060400160405280600681526020017f303033303032000000000000000000000000000000000000000000000000000081525090611df6576040517f08c379a0000000000000000000000000000000000000000000000000000000008152600401611ded9190612dcc565b60405180910390fd5b5060006001600087815260200190815260200160002060009054906101000a900473ffffffffffffffffffffffffffffffffffffffff1690508773ffffffffffffffffffffffffffffffffffffffff168173ffffffffffffffffffffffffffffffffffffffff16146040518060400160405280600681526020017f303033303037000000000000000000000000000000000000000000000000000081525090611ed5576040517f08c379a0000000000000000000000000000000000000000000000000000000008152600401611ecc9190612dcc565b60405180910390fd5b50600073ffffffffffffffffffffffffffffffffffffffff168773ffffffffffffffffffffffffffffffffffffffff1614156040518060400160405280600681526020017f303033303031000000000000000000000000000000000000000000000000000081525090611f7e576040517f08c379a0000000000000000000000000000000000000000000000000000000008152600401611f759190612dcc565b60405180910390fd5b50611f89878761185c565b611fa88773ffffffffffffffffffffffffffffffffffffffff1661250e565b156121045760008773ffffffffffffffffffffffffffffffffffffffff1663150b7a02338b8a8a6040518563ffffffff1660e01b8152600401611fee9493929190612d65565b602060405180830381600087803b15801561200857600080fd5b505af115801561201c573d6000803e3d6000fd5b505050506040513d601f19601f820116820180604052508101906120409190612b5a565b905063150b7a0260e01b7bffffffffffffffffffffffffffffffffffffffffffffffffffffffff1916817bffffffffffffffffffffffffffffffffffffffffffffffffffffffff1916146040518060400160405280600681526020017f303033303035000000000000000000000000000000000000000000000000000081525090612101576040517f08c379a00000000000000000000000000000000000000000000000000000000081526004016120f89190612dcc565b60405180910390fd5b50505b5050505050505050565b61211781612559565b6007600082815260200190815260200160002060006121369190612849565b50565b6000600360008373ffffffffffffffffffffffffffffffffffffffff1673ffffffffffffffffffffffffffffffffffffffff168152602001908152602001600020549050919050565b60606000600980546121939061300d565b9050116121af57604051806020016040528060008152506121db565b60096121ba836126e2565b6040516020016121cb929190612d26565b6040516020818303038152906040525b9050919050565b6002600082815260200190815260200160002060006101000a81549073ffffffffffffffffffffffffffffffffffffffff021916905550565b8173ffffffffffffffffffffffffffffffffffffffff166001600083815260200190815260200160002060009054906101000a900473ffffffffffffffffffffffffffffffffffffffff1673ffffffffffffffffffffffffffffffffffffffff16146040518060400160405280600681526020017f3030333030370000000000000000000000000000000000000000000000000000815250906122f4576040517f08c379a00000000000000000000000000000000000000000000000000000000081526004016122eb9190612dcc565b60405180910390fd5b506001600360008473ffffffffffffffffffffffffffffffffffffffff1673ffffffffffffffffffffffffffffffffffffffff16815260200190815260200160002060008282546123459190612f08565b925050819055506001600082815260200190815260200160002060006101000a81549073ffffffffffffffffffffffffffffffffffffffff02191690555050565b600073ffffffffffffffffffffffffffffffffffffffff166001600083815260200190815260200160002060009054906101000a900473ffffffffffffffffffffffffffffffffffffffff1673ffffffffffffffffffffffffffffffffffffffff16146040518060400160405280600681526020017f303033303036000000000000000000000000000000000000000000000000000081525090612460576040517f08c379a00000000000000000000000000000000000000000000000000000000081526004016124579190612dcc565b60405180910390fd5b50816001600083815260200190815260200160002060006101000a81548173ffffffffffffffffffffffffffffffffffffffff021916908373ffffffffffffffffffffffffffffffffffffffff1602179055506001600360008473ffffffffffffffffffffffffffffffffffffffff1673ffffffffffffffffffffffffffffffffffffffff16815260200190815260200160002060008282546125039190612e81565b925050819055505050565b60008060007fc5d2460186f7233c927e7db2dcc703c0e500b653ca82273b7bfad8045d85a47060001b9050833f91506000801b82141580156125505750808214155b92505050919050565b80600073ffffffffffffffffffffffffffffffffffffffff166001600083815260200190815260200160002060009054906101000a900473ffffffffffffffffffffffffffffffffffffffff1673ffffffffffffffffffffffffffffffffffffffff1614156040518060400160405280600681526020017f303033303032000000000000000000000000000000000000000000000000000081525090612635576040517f08c379a000000000000000000000000000000000000000000000000000000000815260040161262c9190612dcc565b60405180910390fd5b5060006001600084815260200190815260200160002060009054906101000a900473ffffffffffffffffffffffffffffffffffffffff169050612677836121e2565b612681818461221b565b82600073ffffffffffffffffffffffffffffffffffffffff168273ffffffffffffffffffffffffffffffffffffffff167fddf252ad1be2c89b69c2b068fc378daa952ba7f163c4a11628f55a4df523b3ef60405160405180910390a4505050565b6060600082141561272a576040518060400160405280600181526020017f30000000000000000000000000000000000000000000000000000000000000008152509050612844565b600082905060005b6000821461275c5780806127459061303f565b915050600a826127559190612ed7565b9150612732565b60008167ffffffffffffffff81111561277857612777613175565b5b6040519080825280601f01601f1916602001820160405280156127aa5781602001600182028036833780820191505090505b50905060008290508593505b6000841461283c57600a846127cb9190613088565b60306127d79190612e81565b60f81b82826127e590612fe3565b925082815181106127f9576127f8613146565b5b60200101907effffffffffffffffffffffffffffffffffffffffffffffffffffffffffffff1916908160001a905350600a846128359190612ed7565b93506127b6565b819450505050505b919050565b5080546128559061300d565b6000825580601f106128675750612886565b601f0160209004906000526020600020908101906128859190612889565b5b50565b5b808211156128a257600081600090555060010161288a565b5090565b6000813590506128b58161321d565b92915050565b6000813590506128ca81613234565b92915050565b6000813590506128df8161324b565b92915050565b6000815190506128f48161324b565b92915050565b60008083601f8401126129105761290f6131a9565b5b8235905067ffffffffffffffff81111561292d5761292c6131a4565b5b602083019150836001820283011115612949576129486131ae565b5b9250929050565b60008135905061295f81613262565b92915050565b60006020828403121561297b5761297a6131b8565b5b6000612989848285016128a6565b91505092915050565b600080604083850312156129a9576129a86131b8565b5b60006129b7858286016128a6565b92505060206129c8858286016128a6565b9150509250929050565b6000806000606084860312156129eb576129ea6131b8565b5b60006129f9868287016128a6565b9350506020612a0a868287016128a6565b9250506040612a1b86828701612950565b9150509250925092565b600080600080600060808688031215612a4157612a406131b8565b5b6000612a4f888289016128a6565b9550506020612a60888289016128a6565b9450506040612a7188828901612950565b935050606086013567ffffffffffffffff811115612a9257612a916131b3565b5b612a9e888289016128fa565b92509250509295509295909350565b60008060408385031215612ac457612ac36131b8565b5b6000612ad2858286016128a6565b9250506020612ae3858286016128bb565b9150509250929050565b60008060408385031215612b0457612b036131b8565b5b6000612b12858286016128a6565b9250506020612b2385828601612950565b9150509250929050565b600060208284031215612b4357612b426131b8565b5b6000612b51848285016128d0565b91505092915050565b600060208284031215612b7057612b6f6131b8565b5b6000612b7e848285016128e5565b91505092915050565b600060208284031215612b9d57612b9c6131b8565b5b6000612bab84828501612950565b91505092915050565b612bbd81612f3c565b82525050565b612bcc81612f4e565b82525050565b6000612bdd82612e3e565b612be78185612e54565b9350612bf7818560208601612fb0565b612c00816131bd565b840191505092915050565b6000612c1682612e49565b612c208185612e65565b9350612c30818560208601612fb0565b612c39816131bd565b840191505092915050565b6000612c4f82612e49565b612c598185612e76565b9350612c69818560208601612fb0565b80840191505092915050565b60008154612c828161300d565b612c8c8186612e76565b94506001821660008114612ca75760018114612cb857612ceb565b60ff19831686528186019350612ceb565b612cc185612e29565b60005b83811015612ce357815481890152600182019150602081019050612cc4565b838801955050505b50505092915050565b6000612d01603483612e65565b9150612d0c826131ce565b604082019050919050565b612d2081612fa6565b82525050565b6000612d328285612c75565b9150612d3e8284612c44565b91508190509392505050565b6000602082019050612d5f6000830184612bb4565b92915050565b6000608082019050612d7a6000830187612bb4565b612d876020830186612bb4565b612d946040830185612d17565b8181036060830152612da68184612bd2565b905095945050505050565b6000602082019050612dc66000830184612bc3565b92915050565b60006020820190508181036000830152612de68184612c0b565b905092915050565b60006020820190508181036000830152612e0781612cf4565b9050919050565b6000602082019050612e236000830184612d17565b92915050565b60008190508160005260206000209050919050565b600081519050919050565b600081519050919050565b600082825260208201905092915050565b600082825260208201905092915050565b600081905092915050565b6000612e8c82612fa6565b9150612e9783612fa6565b9250827fffffffffffffffffffffffffffffffffffffffffffffffffffffffffffffffff03821115612ecc57612ecb6130b9565b5b828201905092915050565b6000612ee282612fa6565b9150612eed83612fa6565b925082612efd57612efc6130e8565b5b828204905092915050565b6000612f1382612fa6565b9150612f1e83612fa6565b925082821015612f3157612f306130b9565b5b828203905092915050565b6000612f4782612f86565b9050919050565b60008115159050919050565b60007fffffffff0000000000000000000000000000000000000000000000000000000082169050919050565b600073ffffffffffffffffffffffffffffffffffffffff82169050919050565b6000819050919050565b60005b83811015612fce578082015181840152602081019050612fb3565b83811115612fdd576000848401525b50505050565b6000612fee82612fa6565b91506000821415613002576130016130b9565b5b600182039050919050565b6000600282049050600182168061302557607f821691505b6020821081141561303957613038613117565b5b50919050565b600061304a82612fa6565b91507fffffffffffffffffffffffffffffffffffffffffffffffffffffffffffffffff82141561307d5761307c6130b9565b5b600182019050919050565b600061309382612fa6565b915061309e83612fa6565b9250826130ae576130ad6130e8565b5b828206905092915050565b7f4e487b7100000000000000000000000000000000000000000000000000000000600052601160045260246000fd5b7f4e487b7100000000000000000000000000000000000000000000000000000000600052601260045260246000fd5b7f4e487b7100000000000000000000000000000000000000000000000000000000600052602260045260246000fd5b7f4e487b7100000000000000000000000000000000000000000000000000000000600052603260045260246000fd5b7f4e487b7100000000000000000000000000000000000000000000000000000000600052604160045260246000fd5b600080fd5b600080fd5b600080fd5b600080fd5b600080fd5b6000601f19601f8301169050919050565b7f44654365727420646f65736e277420616c6c6f77207472616e73666572206f6660008201527f206261646765732f636572746966696361746573000000000000000000000000602082015250565b61322681612f3c565b811461323157600080fd5b50565b61323d81612f4e565b811461324857600080fd5b50565b61325481612f5a565b811461325f57600080fd5b50565b61326b81612fa6565b811461327657600080fd5b5056fea2646970667358221220bac93cf887c529a0e6e89f73fb36783df6a3b983a330bfe2c36d5f4d9fa7b5a464736f6c63430008060033",
  "linkReferences": {},
  "deployedLinkReferences": {}
}