{
  "_format": "hh-sol-artifact-1",
  "contractName": "AddressUtilsMock",
  "sourceName": "contracts/src/tests/mocks/address-utils-mock.sol",
  "abi": [
    {
      "inputs": [
        {
          "internalType": "address",
          "name": "_addr",
          "type": "address"
        }
      ],
      "name": "isContract",
      "outputs": [
        {
          "internalType": "bool",
          "name": "addressCheck",
          "type": "bool"
        }
      ],
      "stateMutability": "view",
      "type": "function"
    }
  ],
  "bytecode": "0x608060405234801561001057600080fd5b506101cf806100206000396000f3fe608060405234801561001057600080fd5b506004361061002b5760003560e01c80631627905514610030575b600080fd5b61004a600480360381019061004591906100e8565b610060565b6040516100579190610124565b60405180910390f35b60006100818273ffffffffffffffffffffffffffffffffffffffff16610088565b9050919050565b60008060007fc5d2460186f7233c927e7db2dcc703c0e500b653ca82273b7bfad8045d85a47060001b9050833f91506000801b82141580156100ca5750808214155b92505050919050565b6000813590506100e281610182565b92915050565b6000602082840312156100fe576100fd61017d565b5b600061010c848285016100d3565b91505092915050565b61011e81610151565b82525050565b60006020820190506101396000830184610115565b92915050565b600061014a8261015d565b9050919050565b60008115159050919050565b600073ffffffffffffffffffffffffffffffffffffffff82169050919050565b600080fd5b61018b8161013f565b811461019657600080fd5b5056fea2646970667358221220e1fbc2495f803426e89db5b03b573df8c093484fad91113a33382f540a6d3f1664736f6c63430008060033",
  "linkReferences": {},
  "deployedLinkReferences": {}
}