{
  "_format": "hh-sol-artifact-1",
  "contractName": "NFTokenMetadataEnumerableTestMock",
  "sourceName": "contracts/src/tests/mocks/nf-token-metadata-enumerable-test-mock.sol",
  "abi": [
    {
      "inputs": [
        {
          "internalType": "string",
          "name": "_name",
          "type": "string"
        },
        {
          "internalType": "string",
          "name": "_symbol",
          "type": "string"
        }
      ],
      "stateMutability": "nonpayable",
      "type": "constructor"
    },
    {
      "anonymous": false,
      "inputs": [
        {
          "indexed": true,
          "internalType": "address",
          "name": "_owner",
          "type": "address"
        },
        {
          "indexed": true,
          "internalType": "address",
          "name": "_approved",
          "type": "address"
        },
        {
          "indexed": true,
          "internalType": "uint256",
          "name": "_tokenId",
          "type": "uint256"
        }
      ],
      "name": "Approval",
      "type": "event"
    },
    {
      "anonymous": false,
      "inputs": [
        {
          "indexed": true,
          "internalType": "address",
          "name": "_owner",
          "type": "address"
        },
        {
          "indexed": true,
          "internalType": "address",
          "name": "_operator",
          "type": "address"
        },
        {
          "indexed": false,
          "internalType": "bool",
          "name": "_approved",
          "type": "bool"
        }
      ],
      "name": "ApprovalForAll",
      "type": "event"
    },
    {
      "anonymous": false,
      "inputs": [
        {
          "indexed": true,
          "internalType": "address",
          "name": "previousOwner",
          "type": "address"
        },
        {
          "indexed": true,
          "internalType": "address",
          "name": "newOwner",
          "type": "address"
        }
      ],
      "name": "OwnershipTransferred",
      "type": "event"
    },
    {
      "anonymous": false,
      "inputs": [
        {
          "indexed": true,
          "internalType": "address",
          "name": "_from",
          "type": "address"
        },
        {
          "indexed": true,
          "internalType": "address",
          "name": "_to",
          "type": "address"
        },
        {
          "indexed": true,
          "internalType": "uint256",
          "name": "_tokenId",
          "type": "uint256"
        }
      ],
      "name": "Transfer",
      "type": "event"
    },
    {
      "inputs": [],
      "name": "CANNOT_TRANSFER_TO_ZERO_ADDRESS",
      "outputs": [
        {
          "internalType": "string",
          "name": "",
          "type": "string"
        }
      ],
      "stateMutability": "view",
      "type": "function"
    },
    {
      "inputs": [],
      "name": "NOT_CURRENT_OWNER",
      "outputs": [
        {
          "internalType": "string",
          "name": "",
          "type": "string"
        }
      ],
      "stateMutability": "view",
      "type": "function"
    },
    {
      "inputs": [
        {
          "internalType": "address",
          "name": "_approved",
          "type": "address"
        },
        {
          "internalType": "uint256",
          "name": "_tokenId",
          "type": "uint256"
        }
      ],
      "name": "approve",
      "outputs": [],
      "stateMutability": "nonpayable",
      "type": "function"
    },
    {
      "inputs": [
        {
          "internalType": "address",
          "name": "_owner",
          "type": "address"
        }
      ],
      "name": "balanceOf",
      "outputs": [
        {
          "internalType": "uint256",
          "name": "",
          "type": "uint256"
        }
      ],
      "stateMutability": "view",
      "type": "function"
    },
    {
      "inputs": [
        {
          "internalType": "uint256",
          "name": "_tokenId",
          "type": "uint256"
        }
      ],
      "name": "burn",
      "outputs": [],
      "stateMutability": "nonpayable",
      "type": "function"
    },
    {
      "inputs": [
        {
          "internalType": "uint256",
          "name": "_tokenId",
          "type": "uint256"
        }
      ],
      "name": "checkUri",
      "outputs": [
        {
          "internalType": "string",
          "name": "",
          "type": "string"
        }
      ],
      "stateMutability": "view",
      "type": "function"
    },
    {
      "inputs": [
        {
          "internalType": "uint256",
          "name": "_tokenId",
          "type": "uint256"
        }
      ],
      "name": "getApproved",
      "outputs": [
        {
          "internalType": "address",
          "name": "",
          "type": "address"
        }
      ],
      "stateMutability": "view",
      "type": "function"
    },
    {
      "inputs": [
        {
          "internalType": "address",
          "name": "_owner",
          "type": "address"
        },
        {
          "internalType": "address",
          "name": "_operator",
          "type": "address"
        }
      ],
      "name": "isApprovedForAll",
      "outputs": [
        {
          "internalType": "bool",
          "name": "",
          "type": "bool"
        }
      ],
      "stateMutability": "view",
      "type": "function"
    },
    {
      "inputs": [
        {
          "internalType": "address",
          "name": "_to",
          "type": "address"
        },
        {
          "internalType": "uint256",
          "name": "_tokenId",
          "type": "uint256"
        },
        {
          "internalType": "string",
          "name": "_uri",
          "type": "string"
        }
      ],
      "name": "mint",
      "outputs": [],
      "stateMutability": "nonpayable",
      "type": "function"
    },
    {
      "inputs": [],
      "name": "name",
      "outputs": [
        {
          "internalType": "string",
          "name": "_name",
          "type": "string"
        }
      ],
      "stateMutability": "view",
      "type": "function"
    },
    {
      "inputs": [],
      "name": "owner",
      "outputs": [
        {
          "internalType": "address",
          "name": "",
          "type": "address"
        }
      ],
      "stateMutability": "view",
      "type": "function"
    },
    {
      "inputs": [
        {
          "internalType": "uint256",
          "name": "_tokenId",
          "type": "uint256"
        }
      ],
      "name": "ownerOf",
      "outputs": [
        {
          "internalType": "address",
          "name": "_owner",
          "type": "address"
        }
      ],
      "stateMutability": "view",
      "type": "function"
    },
    {
      "inputs": [
        {
          "internalType": "address",
          "name": "_from",
          "type": "address"
        },
        {
          "internalType": "address",
          "name": "_to",
          "type": "address"
        },
        {
          "internalType": "uint256",
          "name": "_tokenId",
          "type": "uint256"
        }
      ],
      "name": "safeTransferFrom",
      "outputs": [],
      "stateMutability": "nonpayable",
      "type": "function"
    },
    {
      "inputs": [
        {
          "internalType": "address",
          "name": "_from",
          "type": "address"
        },
        {
          "internalType": "address",
          "name": "_to",
          "type": "address"
        },
        {
          "internalType": "uint256",
          "name": "_tokenId",
          "type": "uint256"
        },
        {
          "internalType": "bytes",
          "name": "_data",
          "type": "bytes"
        }
      ],
      "name": "safeTransferFrom",
      "outputs": [],
      "stateMutability": "nonpayable",
      "type": "function"
    },
    {
      "inputs": [
        {
          "internalType": "address",
          "name": "_operator",
          "type": "address"
        },
        {
          "internalType": "bool",
          "name": "_approved",
          "type": "bool"
        }
      ],
      "name": "setApprovalForAll",
      "outputs": [],
      "stateMutability": "nonpayable",
      "type": "function"
    },
    {
      "inputs": [
        {
          "internalType": "bytes4",
          "name": "_interfaceID",
          "type": "bytes4"
        }
      ],
      "name": "supportsInterface",
      "outputs": [
        {
          "internalType": "bool",
          "name": "",
          "type": "bool"
        }
      ],
      "stateMutability": "view",
      "type": "function"
    },
    {
      "inputs": [],
      "name": "symbol",
      "outputs": [
        {
          "internalType": "string",
          "name": "_symbol",
          "type": "string"
        }
      ],
      "stateMutability": "view",
      "type": "function"
    },
    {
      "inputs": [
        {
          "internalType": "uint256",
          "name": "_index",
          "type": "uint256"
        }
      ],
      "name": "tokenByIndex",
      "outputs": [
        {
          "internalType": "uint256",
          "name": "",
          "type": "uint256"
        }
      ],
      "stateMutability": "view",
      "type": "function"
    },
    {
      "inputs": [
        {
          "internalType": "address",
          "name": "_owner",
          "type": "address"
        },
        {
          "internalType": "uint256",
          "name": "_index",
          "type": "uint256"
        }
      ],
      "name": "tokenOfOwnerByIndex",
      "outputs": [
        {
          "internalType": "uint256",
          "name": "",
          "type": "uint256"
        }
      ],
      "stateMutability": "view",
      "type": "function"
    },
    {
      "inputs": [
        {
          "internalType": "uint256",
          "name": "_tokenId",
          "type": "uint256"
        }
      ],
      "name": "tokenURI",
      "outputs": [
        {
          "internalType": "string",
          "name": "",
          "type": "string"
        }
      ],
      "stateMutability": "view",
      "type": "function"
    },
    {
      "inputs": [],
      "name": "totalSupply",
      "outputs": [
        {
          "internalType": "uint256",
          "name": "",
          "type": "uint256"
        }
      ],
      "stateMutability": "view",
      "type": "function"
    },
    {
      "inputs": [
        {
          "internalType": "address",
          "name": "_from",
          "type": "address"
        },
        {
          "internalType": "address",
          "name": "_to",
          "type": "address"
        },
        {
          "internalType": "uint256",
          "name": "_tokenId",
          "type": "uint256"
        }
      ],
      "name": "transferFrom",
      "outputs": [],
      "stateMutability": "nonpayable",
      "type": "function"
    },
    {
      "inputs": [
        {
          "internalType": "address",
          "name": "_newOwner",
          "type": "address"
        }
      ],
      "name": "transferOwnership",
      "outputs": [],
      "stateMutability": "nonpayable",
      "type": "function"
    }
  ],
  "bytecode": "0x60806040523480156200001157600080fd5b5060405162003d0838038062003d08833981810160405281019062000037919062000328565b818160016000806301ffc9a760e01b7bffffffffffffffffffffffffffffffffffffffffffffffffffffffff1916815260200190815260200160002060006101000a81548160ff02191690831515021790555060016000806380ac58cd60e01b7bffffffffffffffffffffffffffffffffffffffffffffffffffffffff1916815260200190815260200160002060006101000a81548160ff021916908315150217905550600160008063780e9d6360e01b7bffffffffffffffffffffffffffffffffffffffffffffffffffffffff1916815260200190815260200160002060006101000a81548160ff0219169083151502179055506001600080635b5e139f60e01b7bffffffffffffffffffffffffffffffffffffffffffffffffffffffff1916815260200190815260200160002060006101000a81548160ff02191690831515021790555033600c60006101000a81548173ffffffffffffffffffffffffffffffffffffffff021916908373ffffffffffffffffffffffffffffffffffffffff1602179055508160099080519060200190620001d6929190620001fa565b5080600a9080519060200190620001ef929190620001fa565b505050505062000531565b828054620002089062000442565b90600052602060002090601f0160209004810192826200022c576000855562000278565b82601f106200024757805160ff191683800117855562000278565b8280016001018555821562000278579182015b82811115620002775782518255916020019190600101906200025a565b5b5090506200028791906200028b565b5090565b5b80821115620002a65760008160009055506001016200028c565b5090565b6000620002c1620002bb84620003d6565b620003ad565b905082815260208101848484011115620002e057620002df62000511565b5b620002ed8482856200040c565b509392505050565b600082601f8301126200030d576200030c6200050c565b5b81516200031f848260208601620002aa565b91505092915050565b600080604083850312156200034257620003416200051b565b5b600083015167ffffffffffffffff81111562000363576200036262000516565b5b6200037185828601620002f5565b925050602083015167ffffffffffffffff81111562000395576200039462000516565b5b620003a385828601620002f5565b9150509250929050565b6000620003b9620003cc565b9050620003c7828262000478565b919050565b6000604051905090565b600067ffffffffffffffff821115620003f457620003f3620004dd565b5b620003ff8262000520565b9050602081019050919050565b60005b838110156200042c5780820151818401526020810190506200040f565b838111156200043c576000848401525b50505050565b600060028204905060018216806200045b57607f821691505b60208210811415620004725762000471620004ae565b5b50919050565b620004838262000520565b810181811067ffffffffffffffff82111715620004a557620004a4620004dd565b5b80604052505050565b7f4e487b7100000000000000000000000000000000000000000000000000000000600052602260045260246000fd5b7f4e487b7100000000000000000000000000000000000000000000000000000000600052604160045260246000fd5b600080fd5b600080fd5b600080fd5b600080fd5b6000601f19601f8301169050919050565b6137c780620005416000396000f3fe608060405234801561001057600080fd5b506004361061014d5760003560e01c806370a08231116100c3578063c87b56dd1161007c578063c87b56dd146103b0578063d08eb732146103e0578063d3fc986414610410578063e985e9c51461042c578063f2fde38b1461045c578063f3fe3bc3146104785761014d565b806370a08231146102ee578063860d248a1461031e5780638da5cb5b1461033c57806395d89b411461035a578063a22cb46514610378578063b88d4fde146103945761014d565b806323b872dd1161011557806323b872dd1461020a5780632f745c591461022657806342842e0e1461025657806342966c68146102725780634f6ccce71461028e5780636352211e146102be5761014d565b806301ffc9a71461015257806306fdde0314610182578063081812fc146101a0578063095ea7b3146101d057806318160ddd146101ec575b600080fd5b61016c60048036038101906101679190613293565b610496565b6040516101799190613443565b60405180910390f35b61018a6104fd565b604051610197919061345e565b60405180910390f35b6101ba60048036038101906101b591906132ed565b61058f565b6040516101c791906133dc565b60405180910390f35b6101ea60048036038101906101e591906131df565b6106aa565b005b6101f4610a8d565b60405161020191906134a0565b60405180910390f35b610224600480360381019061021f91906130c4565b610a9a565b005b610240600480360381019061023b91906131df565b610eec565b60405161024d91906134a0565b60405180910390f35b610270600480360381019061026b91906130c4565b61100f565b005b61028c600480360381019061028791906132ed565b61102f565b005b6102a860048036038101906102a391906132ed565b611104565b6040516102b591906134a0565b60405180910390f35b6102d860048036038101906102d391906132ed565b6111ac565b6040516102e591906133dc565b60405180910390f35b61030860048036038101906103039190613057565b611292565b60405161031591906134a0565b60405180910390f35b61032661134c565b604051610333919061345e565b60405180910390f35b610344611385565b60405161035191906133dc565b60405180910390f35b6103626113ab565b60405161036f919061345e565b60405180910390f35b610392600480360381019061038d919061319f565b61143d565b005b6103ae60048036038101906103a99190613117565b61153a565b005b6103ca60048036038101906103c591906132ed565b611591565b6040516103d7919061345e565b60405180910390f35b6103fa60048036038101906103f591906132ed565b611681565b604051610407919061345e565b60405180910390f35b61042a6004803603810190610425919061321f565b611726565b005b61044660048036038101906104419190613084565b61184d565b6040516104539190613443565b60405180910390f35b61047660048036038101906104719190613057565b6118e1565b005b610480611b13565b60405161048d919061345e565b60405180910390f35b6000806000837bffffffffffffffffffffffffffffffffffffffffffffffffffffffff19167bffffffffffffffffffffffffffffffffffffffffffffffffffffffff1916815260200190815260200160002060009054906101000a900460ff169050919050565b60606009805461050c906135ce565b80601f0160208091040260200160405190810160405280929190818152602001828054610538906135ce565b80156105855780601f1061055a57610100808354040283529160200191610585565b820191906000526020600020905b81548152906001019060200180831161056857829003601f168201915b5050505050905090565b600081600073ffffffffffffffffffffffffffffffffffffffff166001600083815260200190815260200160002060009054906101000a900473ffffffffffffffffffffffffffffffffffffffff1673ffffffffffffffffffffffffffffffffffffffff1614156040518060400160405280600681526020017f30303330303200000000000000000000000000000000000000000000000000008152509061066d576040517f08c379a0000000000000000000000000000000000000000000000000000000008152600401610664919061345e565b60405180910390fd5b506002600084815260200190815260200160002060009054906101000a900473ffffffffffffffffffffffffffffffffffffffff16915050919050565b8060006001600083815260200190815260200160002060009054906101000a900473ffffffffffffffffffffffffffffffffffffffff1690503373ffffffffffffffffffffffffffffffffffffffff168173ffffffffffffffffffffffffffffffffffffffff1614806107a35750600460008273ffffffffffffffffffffffffffffffffffffffff1673ffffffffffffffffffffffffffffffffffffffff16815260200190815260200160002060003373ffffffffffffffffffffffffffffffffffffffff1673ffffffffffffffffffffffffffffffffffffffff16815260200190815260200160002060009054906101000a900460ff165b6040518060400160405280600681526020017f30303330303300000000000000000000000000000000000000000000000000008152509061081a576040517f08c379a0000000000000000000000000000000000000000000000000000000008152600401610811919061345e565b60405180910390fd5b5082600073ffffffffffffffffffffffffffffffffffffffff166001600083815260200190815260200160002060009054906101000a900473ffffffffffffffffffffffffffffffffffffffff1673ffffffffffffffffffffffffffffffffffffffff1614156040518060400160405280600681526020017f3030333030320000000000000000000000000000000000000000000000000000815250906108f7576040517f08c379a00000000000000000000000000000000000000000000000000000000081526004016108ee919061345e565b60405180910390fd5b5060006001600086815260200190815260200160002060009054906101000a900473ffffffffffffffffffffffffffffffffffffffff1690508073ffffffffffffffffffffffffffffffffffffffff168673ffffffffffffffffffffffffffffffffffffffff1614156040518060400160405280600681526020017f3030333030380000000000000000000000000000000000000000000000000000815250906109d7576040517f08c379a00000000000000000000000000000000000000000000000000000000081526004016109ce919061345e565b60405180910390fd5b50856002600087815260200190815260200160002060006101000a81548173ffffffffffffffffffffffffffffffffffffffff021916908373ffffffffffffffffffffffffffffffffffffffff160217905550848673ffffffffffffffffffffffffffffffffffffffff168273ffffffffffffffffffffffffffffffffffffffff167f8c5be1e5ebec7d5bd14f71427d1e84f3dd0314c0f7b2291e5b200ac8c7c3b92560405160405180910390a4505050505050565b6000600580549050905090565b8060006001600083815260200190815260200160002060009054906101000a900473ffffffffffffffffffffffffffffffffffffffff1690503373ffffffffffffffffffffffffffffffffffffffff168173ffffffffffffffffffffffffffffffffffffffff161480610b6b57503373ffffffffffffffffffffffffffffffffffffffff166002600084815260200190815260200160002060009054906101000a900473ffffffffffffffffffffffffffffffffffffffff1673ffffffffffffffffffffffffffffffffffffffff16145b80610bfc5750600460008273ffffffffffffffffffffffffffffffffffffffff1673ffffffffffffffffffffffffffffffffffffffff16815260200190815260200160002060003373ffffffffffffffffffffffffffffffffffffffff1673ffffffffffffffffffffffffffffffffffffffff16815260200190815260200160002060009054906101000a900460ff165b6040518060400160405280600681526020017f303033303034000000000000000000000000000000000000000000000000000081525090610c73576040517f08c379a0000000000000000000000000000000000000000000000000000000008152600401610c6a919061345e565b60405180910390fd5b5082600073ffffffffffffffffffffffffffffffffffffffff166001600083815260200190815260200160002060009054906101000a900473ffffffffffffffffffffffffffffffffffffffff1673ffffffffffffffffffffffffffffffffffffffff1614156040518060400160405280600681526020017f303033303032000000000000000000000000000000000000000000000000000081525090610d50576040517f08c379a0000000000000000000000000000000000000000000000000000000008152600401610d47919061345e565b60405180910390fd5b5060006001600086815260200190815260200160002060009054906101000a900473ffffffffffffffffffffffffffffffffffffffff1690508673ffffffffffffffffffffffffffffffffffffffff168173ffffffffffffffffffffffffffffffffffffffff16146040518060400160405280600681526020017f303033303037000000000000000000000000000000000000000000000000000081525090610e2f576040517f08c379a0000000000000000000000000000000000000000000000000000000008152600401610e26919061345e565b60405180910390fd5b50600073ffffffffffffffffffffffffffffffffffffffff168673ffffffffffffffffffffffffffffffffffffffff1614156040518060400160405280600681526020017f303033303031000000000000000000000000000000000000000000000000000081525090610ed8576040517f08c379a0000000000000000000000000000000000000000000000000000000008152600401610ecf919061345e565b60405180910390fd5b50610ee38686611b4c565b50505050505050565b6000600760008473ffffffffffffffffffffffffffffffffffffffff1673ffffffffffffffffffffffffffffffffffffffff1681526020019081526020016000208054905082106040518060400160405280600681526020017f303035303037000000000000000000000000000000000000000000000000000081525090610faa576040517f08c379a0000000000000000000000000000000000000000000000000000000008152600401610fa1919061345e565b60405180910390fd5b50600760008473ffffffffffffffffffffffffffffffffffffffff1673ffffffffffffffffffffffffffffffffffffffff1681526020019081526020016000208281548110610ffc57610ffb61368d565b5b9060005260206000200154905092915050565b61102a83838360405180602001604052806000815250611c42565b505050565b600c60009054906101000a900473ffffffffffffffffffffffffffffffffffffffff1673ffffffffffffffffffffffffffffffffffffffff163373ffffffffffffffffffffffffffffffffffffffff16146040518060400160405280600681526020017f3031383030310000000000000000000000000000000000000000000000000000815250906110f7576040517f08c379a00000000000000000000000000000000000000000000000000000000081526004016110ee919061345e565b60405180910390fd5b5061110181612210565b50565b600060058054905082106040518060400160405280600681526020017f303035303037000000000000000000000000000000000000000000000000000081525090611185576040517f08c379a000000000000000000000000000000000000000000000000000000000815260040161117c919061345e565b60405180910390fd5b506005828154811061119a5761119961368d565b5b90600052602060002001549050919050565b60006001600083815260200190815260200160002060009054906101000a900473ffffffffffffffffffffffffffffffffffffffff169050600073ffffffffffffffffffffffffffffffffffffffff168173ffffffffffffffffffffffffffffffffffffffff1614156040518060400160405280600681526020017f30303330303200000000000000000000000000000000000000000000000000008152509061128c576040517f08c379a0000000000000000000000000000000000000000000000000000000008152600401611283919061345e565b60405180910390fd5b50919050565b60008073ffffffffffffffffffffffffffffffffffffffff168273ffffffffffffffffffffffffffffffffffffffff1614156040518060400160405280600681526020017f30303330303100000000000000000000000000000000000000000000000000008152509061133b576040517f08c379a0000000000000000000000000000000000000000000000000000000008152600401611332919061345e565b60405180910390fd5b506113458261223b565b9050919050565b6040518060400160405280600681526020017f303138303032000000000000000000000000000000000000000000000000000081525081565b600c60009054906101000a900473ffffffffffffffffffffffffffffffffffffffff1681565b6060600a80546113ba906135ce565b80601f01602080910402602001604051908101604052809291908181526020018280546113e6906135ce565b80156114335780601f1061140857610100808354040283529160200191611433565b820191906000526020600020905b81548152906001019060200180831161141657829003601f168201915b5050505050905090565b80600460003373ffffffffffffffffffffffffffffffffffffffff1673ffffffffffffffffffffffffffffffffffffffff16815260200190815260200160002060008473ffffffffffffffffffffffffffffffffffffffff1673ffffffffffffffffffffffffffffffffffffffff16815260200190815260200160002060006101000a81548160ff0219169083151502179055508173ffffffffffffffffffffffffffffffffffffffff163373ffffffffffffffffffffffffffffffffffffffff167f17307eab39ab6107e8899845ad3d59bd9653f200f220920489ca2b5937696c318360405161152e9190613443565b60405180910390a35050565b61158a85858585858080601f016020809104026020016040519081016040528093929190818152602001838380828437600081840152601f19601f82011690508083019250505050505050611c42565b5050505050565b606081600073ffffffffffffffffffffffffffffffffffffffff166001600083815260200190815260200160002060009054906101000a900473ffffffffffffffffffffffffffffffffffffffff1673ffffffffffffffffffffffffffffffffffffffff1614156040518060400160405280600681526020017f30303330303200000000000000000000000000000000000000000000000000008152509061166f576040517f08c379a0000000000000000000000000000000000000000000000000000000008152600401611666919061345e565b60405180910390fd5b506116798361224d565b915050919050565b6060600b600083815260200190815260200160002080546116a1906135ce565b80601f01602080910402602001604051908101604052809291908181526020018280546116cd906135ce565b801561171a5780601f106116ef5761010080835404028352916020019161171a565b820191906000526020600020905b8154815290600101906020018083116116fd57829003601f168201915b50505050509050919050565b600c60009054906101000a900473ffffffffffffffffffffffffffffffffffffffff1673ffffffffffffffffffffffffffffffffffffffff163373ffffffffffffffffffffffffffffffffffffffff16146040518060400160405280600681526020017f3031383030310000000000000000000000000000000000000000000000000000815250906117ee576040517f08c379a00000000000000000000000000000000000000000000000000000000081526004016117e5919061345e565b60405180910390fd5b506117f984846122f2565b6118478383838080601f016020809104026020016040519081016040528093929190818152602001838380828437600081840152601f19601f82011690508083019250505050505050612352565b50505050565b6000600460008473ffffffffffffffffffffffffffffffffffffffff1673ffffffffffffffffffffffffffffffffffffffff16815260200190815260200160002060008373ffffffffffffffffffffffffffffffffffffffff1673ffffffffffffffffffffffffffffffffffffffff16815260200190815260200160002060009054906101000a900460ff16905092915050565b600c60009054906101000a900473ffffffffffffffffffffffffffffffffffffffff1673ffffffffffffffffffffffffffffffffffffffff163373ffffffffffffffffffffffffffffffffffffffff16146040518060400160405280600681526020017f3031383030310000000000000000000000000000000000000000000000000000815250906119a9576040517f08c379a00000000000000000000000000000000000000000000000000000000081526004016119a0919061345e565b60405180910390fd5b50600073ffffffffffffffffffffffffffffffffffffffff168173ffffffffffffffffffffffffffffffffffffffff1614156040518060400160405280600681526020017f303138303032000000000000000000000000000000000000000000000000000081525090611a52576040517f08c379a0000000000000000000000000000000000000000000000000000000008152600401611a49919061345e565b60405180910390fd5b508073ffffffffffffffffffffffffffffffffffffffff16600c60009054906101000a900473ffffffffffffffffffffffffffffffffffffffff1673ffffffffffffffffffffffffffffffffffffffff167f8be0079c531659141344cd1fd0a4f28419497f9722a3daafe3b4186f6b6457e060405160405180910390a380600c60006101000a81548173ffffffffffffffffffffffffffffffffffffffff021916908373ffffffffffffffffffffffffffffffffffffffff16021790555050565b6040518060400160405280600681526020017f303138303031000000000000000000000000000000000000000000000000000081525081565b6000611b8d576040517f08c379a0000000000000000000000000000000000000000000000000000000008152600401611b8490613480565b60405180910390fd5b60006001600083815260200190815260200160002060009054906101000a900473ffffffffffffffffffffffffffffffffffffffff169050611bce8261245c565b611bd88183612495565b611be283836124a3565b818373ffffffffffffffffffffffffffffffffffffffff168273ffffffffffffffffffffffffffffffffffffffff167fddf252ad1be2c89b69c2b068fc378daa952ba7f163c4a11628f55a4df523b3ef60405160405180910390a4505050565b8160006001600083815260200190815260200160002060009054906101000a900473ffffffffffffffffffffffffffffffffffffffff1690503373ffffffffffffffffffffffffffffffffffffffff168173ffffffffffffffffffffffffffffffffffffffff161480611d1357503373ffffffffffffffffffffffffffffffffffffffff166002600084815260200190815260200160002060009054906101000a900473ffffffffffffffffffffffffffffffffffffffff1673ffffffffffffffffffffffffffffffffffffffff16145b80611da45750600460008273ffffffffffffffffffffffffffffffffffffffff1673ffffffffffffffffffffffffffffffffffffffff16815260200190815260200160002060003373ffffffffffffffffffffffffffffffffffffffff1673ffffffffffffffffffffffffffffffffffffffff16815260200190815260200160002060009054906101000a900460ff165b6040518060400160405280600681526020017f303033303034000000000000000000000000000000000000000000000000000081525090611e1b576040517f08c379a0000000000000000000000000000000000000000000000000000000008152600401611e12919061345e565b60405180910390fd5b5083600073ffffffffffffffffffffffffffffffffffffffff166001600083815260200190815260200160002060009054906101000a900473ffffffffffffffffffffffffffffffffffffffff1673ffffffffffffffffffffffffffffffffffffffff1614156040518060400160405280600681526020017f303033303032000000000000000000000000000000000000000000000000000081525090611ef8576040517f08c379a0000000000000000000000000000000000000000000000000000000008152600401611eef919061345e565b60405180910390fd5b5060006001600087815260200190815260200160002060009054906101000a900473ffffffffffffffffffffffffffffffffffffffff1690508773ffffffffffffffffffffffffffffffffffffffff168173ffffffffffffffffffffffffffffffffffffffff16146040518060400160405280600681526020017f303033303037000000000000000000000000000000000000000000000000000081525090611fd7576040517f08c379a0000000000000000000000000000000000000000000000000000000008152600401611fce919061345e565b60405180910390fd5b50600073ffffffffffffffffffffffffffffffffffffffff168773ffffffffffffffffffffffffffffffffffffffff1614156040518060400160405280600681526020017f303033303031000000000000000000000000000000000000000000000000000081525090612080576040517f08c379a0000000000000000000000000000000000000000000000000000000008152600401612077919061345e565b60405180910390fd5b5061208b8787611b4c565b6120aa8773ffffffffffffffffffffffffffffffffffffffff166124b1565b156122065760008773ffffffffffffffffffffffffffffffffffffffff1663150b7a02338b8a8a6040518563ffffffff1660e01b81526004016120f094939291906133f7565b602060405180830381600087803b15801561210a57600080fd5b505af115801561211e573d6000803e3d6000fd5b505050506040513d601f19601f8201168201806040525081019061214291906132c0565b905063150b7a0260e01b7bffffffffffffffffffffffffffffffffffffffffffffffffffffffff1916817bffffffffffffffffffffffffffffffffffffffffffffffffffffffff1916146040518060400160405280600681526020017f303033303035000000000000000000000000000000000000000000000000000081525090612203576040517f08c379a00000000000000000000000000000000000000000000000000000000081526004016121fa919061345e565b60405180910390fd5b50505b5050505050505050565b612219816124fc565b600b600082815260200190815260200160002060006122389190612e5f565b50565b6000612246826125d8565b9050919050565b6060600b6000838152602001908152602001600020805461226d906135ce565b80601f0160208091040260200160405190810160405280929190818152602001828054612299906135ce565b80156122e65780601f106122bb576101008083540402835291602001916122e6565b820191906000526020600020905b8154815290600101906020018083116122c957829003601f168201915b50505050509050919050565b6122fc8282612624565b6005819080600181540180825580915050600190039060005260206000200160009091909190915055600160058054905061233791906134f3565b60066000838152602001908152602001600020819055505050565b81600073ffffffffffffffffffffffffffffffffffffffff166001600083815260200190815260200160002060009054906101000a900473ffffffffffffffffffffffffffffffffffffffff1673ffffffffffffffffffffffffffffffffffffffff1614156040518060400160405280600681526020017f30303330303200000000000000000000000000000000000000000000000000008152509061242e576040517f08c379a0000000000000000000000000000000000000000000000000000000008152600401612425919061345e565b60405180910390fd5b5081600b60008581526020019081526020016000209080519060200190612456929190612e9f565b50505050565b6002600082815260200190815260200160002060006101000a81549073ffffffffffffffffffffffffffffffffffffffff021916905550565b61249f8282612812565b5050565b6124ad8282612ad9565b5050565b60008060007fc5d2460186f7233c927e7db2dcc703c0e500b653ca82273b7bfad8045d85a47060001b9050833f91506000801b82141580156124f35750808214155b92505050919050565b61250581612cd6565b6000600660008381526020019081526020016000205490506000600160058054905061253191906134f3565b90506000600582815481106125495761254861368d565b5b90600052602060002001549050806005848154811061256b5761256a61368d565b5b9060005260206000200181905550600580548061258b5761258a61365e565b5b600190038181906000526020600020016000905590558260066000838152602001908152602001600020819055506000600660008681526020019081526020016000208190555050505050565b6000600760008373ffffffffffffffffffffffffffffffffffffffff1673ffffffffffffffffffffffffffffffffffffffff168152602001908152602001600020805490509050919050565b600073ffffffffffffffffffffffffffffffffffffffff168273ffffffffffffffffffffffffffffffffffffffff1614156040518060400160405280600681526020017f3030333030310000000000000000000000000000000000000000000000000000815250906126cc576040517f08c379a00000000000000000000000000000000000000000000000000000000081526004016126c3919061345e565b60405180910390fd5b50600073ffffffffffffffffffffffffffffffffffffffff166001600083815260200190815260200160002060009054906101000a900473ffffffffffffffffffffffffffffffffffffffff1673ffffffffffffffffffffffffffffffffffffffff16146040518060400160405280600681526020017f3030333030360000000000000000000000000000000000000000000000000000815250906127a7576040517f08c379a000000000000000000000000000000000000000000000000000000000815260040161279e919061345e565b60405180910390fd5b506127b282826124a3565b808273ffffffffffffffffffffffffffffffffffffffff16600073ffffffffffffffffffffffffffffffffffffffff167fddf252ad1be2c89b69c2b068fc378daa952ba7f163c4a11628f55a4df523b3ef60405160405180910390a45050565b8173ffffffffffffffffffffffffffffffffffffffff166001600083815260200190815260200160002060009054906101000a900473ffffffffffffffffffffffffffffffffffffffff1673ffffffffffffffffffffffffffffffffffffffff16146040518060400160405280600681526020017f3030333030370000000000000000000000000000000000000000000000000000815250906128eb576040517f08c379a00000000000000000000000000000000000000000000000000000000081526004016128e2919061345e565b60405180910390fd5b506001600082815260200190815260200160002060006101000a81549073ffffffffffffffffffffffffffffffffffffffff021916905560006008600083815260200190815260200160002054905060006001600760008673ffffffffffffffffffffffffffffffffffffffff1673ffffffffffffffffffffffffffffffffffffffff1681526020019081526020016000208054905061298b91906134f3565b9050818114612a6e576000600760008673ffffffffffffffffffffffffffffffffffffffff1673ffffffffffffffffffffffffffffffffffffffff16815260200190815260200160002082815481106129e7576129e661368d565b5b9060005260206000200154905080600760008773ffffffffffffffffffffffffffffffffffffffff1673ffffffffffffffffffffffffffffffffffffffff1681526020019081526020016000208481548110612a4657612a4561368d565b5b9060005260206000200181905550826008600083815260200190815260200160002081905550505b600760008573ffffffffffffffffffffffffffffffffffffffff1673ffffffffffffffffffffffffffffffffffffffff168152602001908152602001600020805480612abd57612abc61365e565b5b6001900381819060005260206000200160009055905550505050565b600073ffffffffffffffffffffffffffffffffffffffff166001600083815260200190815260200160002060009054906101000a900473ffffffffffffffffffffffffffffffffffffffff1673ffffffffffffffffffffffffffffffffffffffff16146040518060400160405280600681526020017f303033303036000000000000000000000000000000000000000000000000000081525090612bb3576040517f08c379a0000000000000000000000000000000000000000000000000000000008152600401612baa919061345e565b60405180910390fd5b50816001600083815260200190815260200160002060006101000a81548173ffffffffffffffffffffffffffffffffffffffff021916908373ffffffffffffffffffffffffffffffffffffffff160217905550600760008373ffffffffffffffffffffffffffffffffffffffff1673ffffffffffffffffffffffffffffffffffffffff1681526020019081526020016000208190806001815401808255809150506001900390600052602060002001600090919091909150556001600760008473ffffffffffffffffffffffffffffffffffffffff1673ffffffffffffffffffffffffffffffffffffffff16815260200190815260200160002080549050612cbb91906134f3565b60086000838152602001908152602001600020819055505050565b80600073ffffffffffffffffffffffffffffffffffffffff166001600083815260200190815260200160002060009054906101000a900473ffffffffffffffffffffffffffffffffffffffff1673ffffffffffffffffffffffffffffffffffffffff1614156040518060400160405280600681526020017f303033303032000000000000000000000000000000000000000000000000000081525090612db2576040517f08c379a0000000000000000000000000000000000000000000000000000000008152600401612da9919061345e565b60405180910390fd5b5060006001600084815260200190815260200160002060009054906101000a900473ffffffffffffffffffffffffffffffffffffffff169050612df48361245c565b612dfe8184612495565b82600073ffffffffffffffffffffffffffffffffffffffff168273ffffffffffffffffffffffffffffffffffffffff167fddf252ad1be2c89b69c2b068fc378daa952ba7f163c4a11628f55a4df523b3ef60405160405180910390a4505050565b508054612e6b906135ce565b6000825580601f10612e7d5750612e9c565b601f016020900490600052602060002090810190612e9b9190612f25565b5b50565b828054612eab906135ce565b90600052602060002090601f016020900481019282612ecd5760008555612f14565b82601f10612ee657805160ff1916838001178555612f14565b82800160010185558215612f14579182015b82811115612f13578251825591602001919060010190612ef8565b5b509050612f219190612f25565b5090565b5b80821115612f3e576000816000905550600101612f26565b5090565b600081359050612f5181613735565b92915050565b600081359050612f668161374c565b92915050565b600081359050612f7b81613763565b92915050565b600081519050612f9081613763565b92915050565b60008083601f840112612fac57612fab6136c1565b5b8235905067ffffffffffffffff811115612fc957612fc86136bc565b5b602083019150836001820283011115612fe557612fe46136c6565b5b9250929050565b60008083601f840112613002576130016136c1565b5b8235905067ffffffffffffffff81111561301f5761301e6136bc565b5b60208301915083600182028301111561303b5761303a6136c6565b5b9250929050565b6000813590506130518161377a565b92915050565b60006020828403121561306d5761306c6136d0565b5b600061307b84828501612f42565b91505092915050565b6000806040838503121561309b5761309a6136d0565b5b60006130a985828601612f42565b92505060206130ba85828601612f42565b9150509250929050565b6000806000606084860312156130dd576130dc6136d0565b5b60006130eb86828701612f42565b93505060206130fc86828701612f42565b925050604061310d86828701613042565b9150509250925092565b600080600080600060808688031215613133576131326136d0565b5b600061314188828901612f42565b955050602061315288828901612f42565b945050604061316388828901613042565b935050606086013567ffffffffffffffff811115613184576131836136cb565b5b61319088828901612f96565b92509250509295509295909350565b600080604083850312156131b6576131b56136d0565b5b60006131c485828601612f42565b92505060206131d585828601612f57565b9150509250929050565b600080604083850312156131f6576131f56136d0565b5b600061320485828601612f42565b925050602061321585828601613042565b9150509250929050565b60008060008060608587031215613239576132386136d0565b5b600061324787828801612f42565b945050602061325887828801613042565b935050604085013567ffffffffffffffff811115613279576132786136cb565b5b61328587828801612fec565b925092505092959194509250565b6000602082840312156132a9576132a86136d0565b5b60006132b784828501612f6c565b91505092915050565b6000602082840312156132d6576132d56136d0565b5b60006132e484828501612f81565b91505092915050565b600060208284031215613303576133026136d0565b5b600061331184828501613042565b91505092915050565b61332381613527565b82525050565b61333281613539565b82525050565b6000613343826134bb565b61334d81856134d1565b935061335d81856020860161359b565b613366816136d5565b840191505092915050565b600061337c826134c6565b61338681856134e2565b935061339681856020860161359b565b61339f816136d5565b840191505092915050565b60006133b76034836134e2565b91506133c2826136e6565b604082019050919050565b6133d681613591565b82525050565b60006020820190506133f1600083018461331a565b92915050565b600060808201905061340c600083018761331a565b613419602083018661331a565b61342660408301856133cd565b81810360608301526134388184613338565b905095945050505050565b60006020820190506134586000830184613329565b92915050565b600060208201905081810360008301526134788184613371565b905092915050565b60006020820190508181036000830152613499816133aa565b9050919050565b60006020820190506134b560008301846133cd565b92915050565b600081519050919050565b600081519050919050565b600082825260208201905092915050565b600082825260208201905092915050565b60006134fe82613591565b915061350983613591565b92508282101561351c5761351b613600565b5b828203905092915050565b600061353282613571565b9050919050565b60008115159050919050565b60007fffffffff0000000000000000000000000000000000000000000000000000000082169050919050565b600073ffffffffffffffffffffffffffffffffffffffff82169050919050565b6000819050919050565b60005b838110156135b957808201518184015260208101905061359e565b838111156135c8576000848401525b50505050565b600060028204905060018216806135e657607f821691505b602082108114156135fa576135f961362f565b5b50919050565b7f4e487b7100000000000000000000000000000000000000000000000000000000600052601160045260246000fd5b7f4e487b7100000000000000000000000000000000000000000000000000000000600052602260045260246000fd5b7f4e487b7100000000000000000000000000000000000000000000000000000000600052603160045260246000fd5b7f4e487b7100000000000000000000000000000000000000000000000000000000600052603260045260246000fd5b600080fd5b600080fd5b600080fd5b600080fd5b600080fd5b6000601f19601f8301169050919050565b7f44654365727420646f65736e277420616c6c6f77207472616e73666572206f6660008201527f206261646765732f636572746966696361746573000000000000000000000000602082015250565b61373e81613527565b811461374957600080fd5b50565b61375581613539565b811461376057600080fd5b50565b61376c81613545565b811461377757600080fd5b50565b61378381613591565b811461378e57600080fd5b5056fea26469706673582212204317621dcf439be42b885a600cb21c4facc5e9313c3999f2f12f64e9ecf8440364736f6c63430008060033",
  "linkReferences": {},
  "deployedLinkReferences": {}
}