{
  "_format": "hh-sol-artifact-1",
  "contractName": "NFTokenEnumerableMock",
  "sourceName": "contracts/src/contracts/mocks/nf-token-enumerable-mock.sol",
  "abi": [
    {
      "anonymous": false,
      "inputs": [
        {
          "indexed": true,
          "internalType": "address",
          "name": "_owner",
          "type": "address"
        },
        {
          "indexed": true,
          "internalType": "address",
          "name": "_approved",
          "type": "address"
        },
        {
          "indexed": true,
          "internalType": "uint256",
          "name": "_tokenId",
          "type": "uint256"
        }
      ],
      "name": "Approval",
      "type": "event"
    },
    {
      "anonymous": false,
      "inputs": [
        {
          "indexed": true,
          "internalType": "address",
          "name": "_owner",
          "type": "address"
        },
        {
          "indexed": true,
          "internalType": "address",
          "name": "_operator",
          "type": "address"
        },
        {
          "indexed": false,
          "internalType": "bool",
          "name": "_approved",
          "type": "bool"
        }
      ],
      "name": "ApprovalForAll",
      "type": "event"
    },
    {
      "anonymous": false,
      "inputs": [
        {
          "indexed": true,
          "internalType": "address",
          "name": "previousOwner",
          "type": "address"
        },
        {
          "indexed": true,
          "internalType": "address",
          "name": "newOwner",
          "type": "address"
        }
      ],
      "name": "OwnershipTransferred",
      "type": "event"
    },
    {
      "anonymous": false,
      "inputs": [
        {
          "indexed": true,
          "internalType": "address",
          "name": "_from",
          "type": "address"
        },
        {
          "indexed": true,
          "internalType": "address",
          "name": "_to",
          "type": "address"
        },
        {
          "indexed": true,
          "internalType": "uint256",
          "name": "_tokenId",
          "type": "uint256"
        }
      ],
      "name": "Transfer",
      "type": "event"
    },
    {
      "inputs": [],
      "name": "CANNOT_TRANSFER_TO_ZERO_ADDRESS",
      "outputs": [
        {
          "internalType": "string",
          "name": "",
          "type": "string"
        }
      ],
      "stateMutability": "view",
      "type": "function"
    },
    {
      "inputs": [],
      "name": "NOT_CURRENT_OWNER",
      "outputs": [
        {
          "internalType": "string",
          "name": "",
          "type": "string"
        }
      ],
      "stateMutability": "view",
      "type": "function"
    },
    {
      "inputs": [
        {
          "internalType": "address",
          "name": "_approved",
          "type": "address"
        },
        {
          "internalType": "uint256",
          "name": "_tokenId",
          "type": "uint256"
        }
      ],
      "name": "approve",
      "outputs": [],
      "stateMutability": "nonpayable",
      "type": "function"
    },
    {
      "inputs": [
        {
          "internalType": "address",
          "name": "_owner",
          "type": "address"
        }
      ],
      "name": "balanceOf",
      "outputs": [
        {
          "internalType": "uint256",
          "name": "",
          "type": "uint256"
        }
      ],
      "stateMutability": "view",
      "type": "function"
    },
    {
      "inputs": [
        {
          "internalType": "uint256",
          "name": "_tokenId",
          "type": "uint256"
        }
      ],
      "name": "burn",
      "outputs": [],
      "stateMutability": "nonpayable",
      "type": "function"
    },
    {
      "inputs": [
        {
          "internalType": "uint256",
          "name": "_tokenId",
          "type": "uint256"
        }
      ],
      "name": "getApproved",
      "outputs": [
        {
          "internalType": "address",
          "name": "",
          "type": "address"
        }
      ],
      "stateMutability": "view",
      "type": "function"
    },
    {
      "inputs": [
        {
          "internalType": "address",
          "name": "_owner",
          "type": "address"
        },
        {
          "internalType": "address",
          "name": "_operator",
          "type": "address"
        }
      ],
      "name": "isApprovedForAll",
      "outputs": [
        {
          "internalType": "bool",
          "name": "",
          "type": "bool"
        }
      ],
      "stateMutability": "view",
      "type": "function"
    },
    {
      "inputs": [
        {
          "internalType": "address",
          "name": "_to",
          "type": "address"
        },
        {
          "internalType": "uint256",
          "name": "_tokenId",
          "type": "uint256"
        }
      ],
      "name": "mint",
      "outputs": [],
      "stateMutability": "nonpayable",
      "type": "function"
    },
    {
      "inputs": [],
      "name": "owner",
      "outputs": [
        {
          "internalType": "address",
          "name": "",
          "type": "address"
        }
      ],
      "stateMutability": "view",
      "type": "function"
    },
    {
      "inputs": [
        {
          "internalType": "uint256",
          "name": "_tokenId",
          "type": "uint256"
        }
      ],
      "name": "ownerOf",
      "outputs": [
        {
          "internalType": "address",
          "name": "_owner",
          "type": "address"
        }
      ],
      "stateMutability": "view",
      "type": "function"
    },
    {
      "inputs": [
        {
          "internalType": "address",
          "name": "_from",
          "type": "address"
        },
        {
          "internalType": "address",
          "name": "_to",
          "type": "address"
        },
        {
          "internalType": "uint256",
          "name": "_tokenId",
          "type": "uint256"
        }
      ],
      "name": "safeTransferFrom",
      "outputs": [],
      "stateMutability": "nonpayable",
      "type": "function"
    },
    {
      "inputs": [
        {
          "internalType": "address",
          "name": "_from",
          "type": "address"
        },
        {
          "internalType": "address",
          "name": "_to",
          "type": "address"
        },
        {
          "internalType": "uint256",
          "name": "_tokenId",
          "type": "uint256"
        },
        {
          "internalType": "bytes",
          "name": "_data",
          "type": "bytes"
        }
      ],
      "name": "safeTransferFrom",
      "outputs": [],
      "stateMutability": "nonpayable",
      "type": "function"
    },
    {
      "inputs": [
        {
          "internalType": "address",
          "name": "_operator",
          "type": "address"
        },
        {
          "internalType": "bool",
          "name": "_approved",
          "type": "bool"
        }
      ],
      "name": "setApprovalForAll",
      "outputs": [],
      "stateMutability": "nonpayable",
      "type": "function"
    },
    {
      "inputs": [
        {
          "internalType": "bytes4",
          "name": "_interfaceID",
          "type": "bytes4"
        }
      ],
      "name": "supportsInterface",
      "outputs": [
        {
          "internalType": "bool",
          "name": "",
          "type": "bool"
        }
      ],
      "stateMutability": "view",
      "type": "function"
    },
    {
      "inputs": [
        {
          "internalType": "uint256",
          "name": "_index",
          "type": "uint256"
        }
      ],
      "name": "tokenByIndex",
      "outputs": [
        {
          "internalType": "uint256",
          "name": "",
          "type": "uint256"
        }
      ],
      "stateMutability": "view",
      "type": "function"
    },
    {
      "inputs": [
        {
          "internalType": "address",
          "name": "_owner",
          "type": "address"
        },
        {
          "internalType": "uint256",
          "name": "_index",
          "type": "uint256"
        }
      ],
      "name": "tokenOfOwnerByIndex",
      "outputs": [
        {
          "internalType": "uint256",
          "name": "",
          "type": "uint256"
        }
      ],
      "stateMutability": "view",
      "type": "function"
    },
    {
      "inputs": [],
      "name": "totalSupply",
      "outputs": [
        {
          "internalType": "uint256",
          "name": "",
          "type": "uint256"
        }
      ],
      "stateMutability": "view",
      "type": "function"
    },
    {
      "inputs": [
        {
          "internalType": "address",
          "name": "_from",
          "type": "address"
        },
        {
          "internalType": "address",
          "name": "_to",
          "type": "address"
        },
        {
          "internalType": "uint256",
          "name": "_tokenId",
          "type": "uint256"
        }
      ],
      "name": "transferFrom",
      "outputs": [],
      "stateMutability": "nonpayable",
      "type": "function"
    },
    {
      "inputs": [
        {
          "internalType": "address",
          "name": "_newOwner",
          "type": "address"
        }
      ],
      "name": "transferOwnership",
      "outputs": [],
      "stateMutability": "nonpayable",
      "type": "function"
    }
  ],
  "bytecode": "0x608060405234801561001057600080fd5b5060016000806301ffc9a760e01b7bffffffffffffffffffffffffffffffffffffffffffffffffffffffff1916815260200190815260200160002060006101000a81548160ff02191690831515021790555060016000806380ac58cd60e01b7bffffffffffffffffffffffffffffffffffffffffffffffffffffffff1916815260200190815260200160002060006101000a81548160ff021916908315150217905550600160008063780e9d6360e01b7bffffffffffffffffffffffffffffffffffffffffffffffffffffffff1916815260200190815260200160002060006101000a81548160ff02191690831515021790555033600960006101000a81548173ffffffffffffffffffffffffffffffffffffffff021916908373ffffffffffffffffffffffffffffffffffffffff160217905550612fe0806101546000396000f3fe608060405234801561001057600080fd5b50600436106101215760003560e01c80634f6ccce7116100ad578063a22cb46511610071578063a22cb4651461032c578063b88d4fde14610348578063e985e9c514610364578063f2fde38b14610394578063f3fe3bc3146103b057610121565b80634f6ccce7146102605780636352211e1461029057806370a08231146102c0578063860d248a146102f05780638da5cb5b1461030e57610121565b806323b872dd116100f457806323b872dd146101c05780632f745c59146101dc57806340c10f191461020c57806342842e0e1461022857806342966c681461024457610121565b806301ffc9a714610126578063081812fc14610156578063095ea7b31461018657806318160ddd146101a2575b600080fd5b610140600480360381019061013b9190612b0d565b6103ce565b60405161014d9190612cbd565b60405180910390f35b610170600480360381019061016b9190612b67565b610435565b60405161017d9190612c56565b60405180910390f35b6101a0600480360381019061019b9190612acd565b610550565b005b6101aa610933565b6040516101b79190612d1a565b60405180910390f35b6101da60048036038101906101d591906129b2565b610940565b005b6101f660048036038101906101f19190612acd565b610d92565b6040516102039190612d1a565b60405180910390f35b61022660048036038101906102219190612acd565b610eb5565b005b610242600480360381019061023d91906129b2565b610f8c565b005b61025e60048036038101906102599190612b67565b610fac565b005b61027a60048036038101906102759190612b67565b611081565b6040516102879190612d1a565b60405180910390f35b6102aa60048036038101906102a59190612b67565b611129565b6040516102b79190612c56565b60405180910390f35b6102da60048036038101906102d59190612945565b61120f565b6040516102e79190612d1a565b60405180910390f35b6102f86112c9565b6040516103059190612cd8565b60405180910390f35b610316611302565b6040516103239190612c56565b60405180910390f35b61034660048036038101906103419190612a8d565b611328565b005b610362600480360381019061035d9190612a05565b611425565b005b61037e60048036038101906103799190612972565b61147c565b60405161038b9190612cbd565b60405180910390f35b6103ae60048036038101906103a99190612945565b611510565b005b6103b8611742565b6040516103c59190612cd8565b60405180910390f35b6000806000837bffffffffffffffffffffffffffffffffffffffffffffffffffffffff19167bffffffffffffffffffffffffffffffffffffffffffffffffffffffff1916815260200190815260200160002060009054906101000a900460ff169050919050565b600081600073ffffffffffffffffffffffffffffffffffffffff166001600083815260200190815260200160002060009054906101000a900473ffffffffffffffffffffffffffffffffffffffff1673ffffffffffffffffffffffffffffffffffffffff1614156040518060400160405280600681526020017f303033303032000000000000000000000000000000000000000000000000000081525090610513576040517f08c379a000000000000000000000000000000000000000000000000000000000815260040161050a9190612cd8565b60405180910390fd5b506002600084815260200190815260200160002060009054906101000a900473ffffffffffffffffffffffffffffffffffffffff16915050919050565b8060006001600083815260200190815260200160002060009054906101000a900473ffffffffffffffffffffffffffffffffffffffff1690503373ffffffffffffffffffffffffffffffffffffffff168173ffffffffffffffffffffffffffffffffffffffff1614806106495750600460008273ffffffffffffffffffffffffffffffffffffffff1673ffffffffffffffffffffffffffffffffffffffff16815260200190815260200160002060003373ffffffffffffffffffffffffffffffffffffffff1673ffffffffffffffffffffffffffffffffffffffff16815260200190815260200160002060009054906101000a900460ff165b6040518060400160405280600681526020017f3030333030330000000000000000000000000000000000000000000000000000815250906106c0576040517f08c379a00000000000000000000000000000000000000000000000000000000081526004016106b79190612cd8565b60405180910390fd5b5082600073ffffffffffffffffffffffffffffffffffffffff166001600083815260200190815260200160002060009054906101000a900473ffffffffffffffffffffffffffffffffffffffff1673ffffffffffffffffffffffffffffffffffffffff1614156040518060400160405280600681526020017f30303330303200000000000000000000000000000000000000000000000000008152509061079d576040517f08c379a00000000000000000000000000000000000000000000000000000000081526004016107949190612cd8565b60405180910390fd5b5060006001600086815260200190815260200160002060009054906101000a900473ffffffffffffffffffffffffffffffffffffffff1690508073ffffffffffffffffffffffffffffffffffffffff168673ffffffffffffffffffffffffffffffffffffffff1614156040518060400160405280600681526020017f30303330303800000000000000000000000000000000000000000000000000008152509061087d576040517f08c379a00000000000000000000000000000000000000000000000000000000081526004016108749190612cd8565b60405180910390fd5b50856002600087815260200190815260200160002060006101000a81548173ffffffffffffffffffffffffffffffffffffffff021916908373ffffffffffffffffffffffffffffffffffffffff160217905550848673ffffffffffffffffffffffffffffffffffffffff168273ffffffffffffffffffffffffffffffffffffffff167f8c5be1e5ebec7d5bd14f71427d1e84f3dd0314c0f7b2291e5b200ac8c7c3b92560405160405180910390a4505050505050565b6000600580549050905090565b8060006001600083815260200190815260200160002060009054906101000a900473ffffffffffffffffffffffffffffffffffffffff1690503373ffffffffffffffffffffffffffffffffffffffff168173ffffffffffffffffffffffffffffffffffffffff161480610a1157503373ffffffffffffffffffffffffffffffffffffffff166002600084815260200190815260200160002060009054906101000a900473ffffffffffffffffffffffffffffffffffffffff1673ffffffffffffffffffffffffffffffffffffffff16145b80610aa25750600460008273ffffffffffffffffffffffffffffffffffffffff1673ffffffffffffffffffffffffffffffffffffffff16815260200190815260200160002060003373ffffffffffffffffffffffffffffffffffffffff1673ffffffffffffffffffffffffffffffffffffffff16815260200190815260200160002060009054906101000a900460ff165b6040518060400160405280600681526020017f303033303034000000000000000000000000000000000000000000000000000081525090610b19576040517f08c379a0000000000000000000000000000000000000000000000000000000008152600401610b109190612cd8565b60405180910390fd5b5082600073ffffffffffffffffffffffffffffffffffffffff166001600083815260200190815260200160002060009054906101000a900473ffffffffffffffffffffffffffffffffffffffff1673ffffffffffffffffffffffffffffffffffffffff1614156040518060400160405280600681526020017f303033303032000000000000000000000000000000000000000000000000000081525090610bf6576040517f08c379a0000000000000000000000000000000000000000000000000000000008152600401610bed9190612cd8565b60405180910390fd5b5060006001600086815260200190815260200160002060009054906101000a900473ffffffffffffffffffffffffffffffffffffffff1690508673ffffffffffffffffffffffffffffffffffffffff168173ffffffffffffffffffffffffffffffffffffffff16146040518060400160405280600681526020017f303033303037000000000000000000000000000000000000000000000000000081525090610cd5576040517f08c379a0000000000000000000000000000000000000000000000000000000008152600401610ccc9190612cd8565b60405180910390fd5b50600073ffffffffffffffffffffffffffffffffffffffff168673ffffffffffffffffffffffffffffffffffffffff1614156040518060400160405280600681526020017f303033303031000000000000000000000000000000000000000000000000000081525090610d7e576040517f08c379a0000000000000000000000000000000000000000000000000000000008152600401610d759190612cd8565b60405180910390fd5b50610d89868661177b565b50505050505050565b6000600760008473ffffffffffffffffffffffffffffffffffffffff1673ffffffffffffffffffffffffffffffffffffffff1681526020019081526020016000208054905082106040518060400160405280600681526020017f303035303037000000000000000000000000000000000000000000000000000081525090610e50576040517f08c379a0000000000000000000000000000000000000000000000000000000008152600401610e479190612cd8565b60405180910390fd5b50600760008473ffffffffffffffffffffffffffffffffffffffff1673ffffffffffffffffffffffffffffffffffffffff1681526020019081526020016000208281548110610ea257610ea1612ea6565b5b9060005260206000200154905092915050565b600960009054906101000a900473ffffffffffffffffffffffffffffffffffffffff1673ffffffffffffffffffffffffffffffffffffffff163373ffffffffffffffffffffffffffffffffffffffff16146040518060400160405280600681526020017f303138303031000000000000000000000000000000000000000000000000000081525090610f7d576040517f08c379a0000000000000000000000000000000000000000000000000000000008152600401610f749190612cd8565b60405180910390fd5b50610f888282611871565b5050565b610fa7838383604051806020016040528060008152506118d1565b505050565b600960009054906101000a900473ffffffffffffffffffffffffffffffffffffffff1673ffffffffffffffffffffffffffffffffffffffff163373ffffffffffffffffffffffffffffffffffffffff16146040518060400160405280600681526020017f303138303031000000000000000000000000000000000000000000000000000081525090611074576040517f08c379a000000000000000000000000000000000000000000000000000000000815260040161106b9190612cd8565b60405180910390fd5b5061107e81611e9f565b50565b600060058054905082106040518060400160405280600681526020017f303035303037000000000000000000000000000000000000000000000000000081525090611102576040517f08c379a00000000000000000000000000000000000000000000000000000000081526004016110f99190612cd8565b60405180910390fd5b506005828154811061111757611116612ea6565b5b90600052602060002001549050919050565b60006001600083815260200190815260200160002060009054906101000a900473ffffffffffffffffffffffffffffffffffffffff169050600073ffffffffffffffffffffffffffffffffffffffff168173ffffffffffffffffffffffffffffffffffffffff1614156040518060400160405280600681526020017f303033303032000000000000000000000000000000000000000000000000000081525090611209576040517f08c379a00000000000000000000000000000000000000000000000000000000081526004016112009190612cd8565b60405180910390fd5b50919050565b60008073ffffffffffffffffffffffffffffffffffffffff168273ffffffffffffffffffffffffffffffffffffffff1614156040518060400160405280600681526020017f3030333030310000000000000000000000000000000000000000000000000000815250906112b8576040517f08c379a00000000000000000000000000000000000000000000000000000000081526004016112af9190612cd8565b60405180910390fd5b506112c282611f7b565b9050919050565b6040518060400160405280600681526020017f303138303032000000000000000000000000000000000000000000000000000081525081565b600960009054906101000a900473ffffffffffffffffffffffffffffffffffffffff1681565b80600460003373ffffffffffffffffffffffffffffffffffffffff1673ffffffffffffffffffffffffffffffffffffffff16815260200190815260200160002060008473ffffffffffffffffffffffffffffffffffffffff1673ffffffffffffffffffffffffffffffffffffffff16815260200190815260200160002060006101000a81548160ff0219169083151502179055508173ffffffffffffffffffffffffffffffffffffffff163373ffffffffffffffffffffffffffffffffffffffff167f17307eab39ab6107e8899845ad3d59bd9653f200f220920489ca2b5937696c31836040516114199190612cbd565b60405180910390a35050565b61147585858585858080601f016020809104026020016040519081016040528093929190818152602001838380828437600081840152601f19601f820116905080830192505050505050506118d1565b5050505050565b6000600460008473ffffffffffffffffffffffffffffffffffffffff1673ffffffffffffffffffffffffffffffffffffffff16815260200190815260200160002060008373ffffffffffffffffffffffffffffffffffffffff1673ffffffffffffffffffffffffffffffffffffffff16815260200190815260200160002060009054906101000a900460ff16905092915050565b600960009054906101000a900473ffffffffffffffffffffffffffffffffffffffff1673ffffffffffffffffffffffffffffffffffffffff163373ffffffffffffffffffffffffffffffffffffffff16146040518060400160405280600681526020017f3031383030310000000000000000000000000000000000000000000000000000815250906115d8576040517f08c379a00000000000000000000000000000000000000000000000000000000081526004016115cf9190612cd8565b60405180910390fd5b50600073ffffffffffffffffffffffffffffffffffffffff168173ffffffffffffffffffffffffffffffffffffffff1614156040518060400160405280600681526020017f303138303032000000000000000000000000000000000000000000000000000081525090611681576040517f08c379a00000000000000000000000000000000000000000000000000000000081526004016116789190612cd8565b60405180910390fd5b508073ffffffffffffffffffffffffffffffffffffffff16600960009054906101000a900473ffffffffffffffffffffffffffffffffffffffff1673ffffffffffffffffffffffffffffffffffffffff167f8be0079c531659141344cd1fd0a4f28419497f9722a3daafe3b4186f6b6457e060405160405180910390a380600960006101000a81548173ffffffffffffffffffffffffffffffffffffffff021916908373ffffffffffffffffffffffffffffffffffffffff16021790555050565b6040518060400160405280600681526020017f303138303031000000000000000000000000000000000000000000000000000081525081565b60006117bc576040517f08c379a00000000000000000000000000000000000000000000000000000000081526004016117b390612cfa565b60405180910390fd5b60006001600083815260200190815260200160002060009054906101000a900473ffffffffffffffffffffffffffffffffffffffff1690506117fd82611fc7565b6118078183612000565b61181183836122c7565b818373ffffffffffffffffffffffffffffffffffffffff168273ffffffffffffffffffffffffffffffffffffffff167fddf252ad1be2c89b69c2b068fc378daa952ba7f163c4a11628f55a4df523b3ef60405160405180910390a4505050565b61187b82826124c4565b600581908060018154018082558091505060019003906000526020600020016000909190919091505560016005805490506118b69190612d6d565b60066000838152602001908152602001600020819055505050565b8160006001600083815260200190815260200160002060009054906101000a900473ffffffffffffffffffffffffffffffffffffffff1690503373ffffffffffffffffffffffffffffffffffffffff168173ffffffffffffffffffffffffffffffffffffffff1614806119a257503373ffffffffffffffffffffffffffffffffffffffff166002600084815260200190815260200160002060009054906101000a900473ffffffffffffffffffffffffffffffffffffffff1673ffffffffffffffffffffffffffffffffffffffff16145b80611a335750600460008273ffffffffffffffffffffffffffffffffffffffff1673ffffffffffffffffffffffffffffffffffffffff16815260200190815260200160002060003373ffffffffffffffffffffffffffffffffffffffff1673ffffffffffffffffffffffffffffffffffffffff16815260200190815260200160002060009054906101000a900460ff165b6040518060400160405280600681526020017f303033303034000000000000000000000000000000000000000000000000000081525090611aaa576040517f08c379a0000000000000000000000000000000000000000000000000000000008152600401611aa19190612cd8565b60405180910390fd5b5083600073ffffffffffffffffffffffffffffffffffffffff166001600083815260200190815260200160002060009054906101000a900473ffffffffffffffffffffffffffffffffffffffff1673ffffffffffffffffffffffffffffffffffffffff1614156040518060400160405280600681526020017f303033303032000000000000000000000000000000000000000000000000000081525090611b87576040517f08c379a0000000000000000000000000000000000000000000000000000000008152600401611b7e9190612cd8565b60405180910390fd5b5060006001600087815260200190815260200160002060009054906101000a900473ffffffffffffffffffffffffffffffffffffffff1690508773ffffffffffffffffffffffffffffffffffffffff168173ffffffffffffffffffffffffffffffffffffffff16146040518060400160405280600681526020017f303033303037000000000000000000000000000000000000000000000000000081525090611c66576040517f08c379a0000000000000000000000000000000000000000000000000000000008152600401611c5d9190612cd8565b60405180910390fd5b50600073ffffffffffffffffffffffffffffffffffffffff168773ffffffffffffffffffffffffffffffffffffffff1614156040518060400160405280600681526020017f303033303031000000000000000000000000000000000000000000000000000081525090611d0f576040517f08c379a0000000000000000000000000000000000000000000000000000000008152600401611d069190612cd8565b60405180910390fd5b50611d1a878761177b565b611d398773ffffffffffffffffffffffffffffffffffffffff166126b2565b15611e955760008773ffffffffffffffffffffffffffffffffffffffff1663150b7a02338b8a8a6040518563ffffffff1660e01b8152600401611d7f9493929190612c71565b602060405180830381600087803b158015611d9957600080fd5b505af1158015611dad573d6000803e3d6000fd5b505050506040513d601f19601f82011682018060405250810190611dd19190612b3a565b905063150b7a0260e01b7bffffffffffffffffffffffffffffffffffffffffffffffffffffffff1916817bffffffffffffffffffffffffffffffffffffffffffffffffffffffff1916146040518060400160405280600681526020017f303033303035000000000000000000000000000000000000000000000000000081525090611e92576040517f08c379a0000000000000000000000000000000000000000000000000000000008152600401611e899190612cd8565b60405180910390fd5b50505b5050505050505050565b611ea8816126fd565b60006006600083815260200190815260200160002054905060006001600580549050611ed49190612d6d565b9050600060058281548110611eec57611eeb612ea6565b5b906000526020600020015490508060058481548110611f0e57611f0d612ea6565b5b90600052602060002001819055506005805480611f2e57611f2d612e77565b5b600190038181906000526020600020016000905590558260066000838152602001908152602001600020819055506000600660008681526020019081526020016000208190555050505050565b6000600760008373ffffffffffffffffffffffffffffffffffffffff1673ffffffffffffffffffffffffffffffffffffffff168152602001908152602001600020805490509050919050565b6002600082815260200190815260200160002060006101000a81549073ffffffffffffffffffffffffffffffffffffffff021916905550565b8173ffffffffffffffffffffffffffffffffffffffff166001600083815260200190815260200160002060009054906101000a900473ffffffffffffffffffffffffffffffffffffffff1673ffffffffffffffffffffffffffffffffffffffff16146040518060400160405280600681526020017f3030333030370000000000000000000000000000000000000000000000000000815250906120d9576040517f08c379a00000000000000000000000000000000000000000000000000000000081526004016120d09190612cd8565b60405180910390fd5b506001600082815260200190815260200160002060006101000a81549073ffffffffffffffffffffffffffffffffffffffff021916905560006008600083815260200190815260200160002054905060006001600760008673ffffffffffffffffffffffffffffffffffffffff1673ffffffffffffffffffffffffffffffffffffffff168152602001908152602001600020805490506121799190612d6d565b905081811461225c576000600760008673ffffffffffffffffffffffffffffffffffffffff1673ffffffffffffffffffffffffffffffffffffffff16815260200190815260200160002082815481106121d5576121d4612ea6565b5b9060005260206000200154905080600760008773ffffffffffffffffffffffffffffffffffffffff1673ffffffffffffffffffffffffffffffffffffffff168152602001908152602001600020848154811061223457612233612ea6565b5b9060005260206000200181905550826008600083815260200190815260200160002081905550505b600760008573ffffffffffffffffffffffffffffffffffffffff1673ffffffffffffffffffffffffffffffffffffffff1681526020019081526020016000208054806122ab576122aa612e77565b5b6001900381819060005260206000200160009055905550505050565b600073ffffffffffffffffffffffffffffffffffffffff166001600083815260200190815260200160002060009054906101000a900473ffffffffffffffffffffffffffffffffffffffff1673ffffffffffffffffffffffffffffffffffffffff16146040518060400160405280600681526020017f3030333030360000000000000000000000000000000000000000000000000000815250906123a1576040517f08c379a00000000000000000000000000000000000000000000000000000000081526004016123989190612cd8565b60405180910390fd5b50816001600083815260200190815260200160002060006101000a81548173ffffffffffffffffffffffffffffffffffffffff021916908373ffffffffffffffffffffffffffffffffffffffff160217905550600760008373ffffffffffffffffffffffffffffffffffffffff1673ffffffffffffffffffffffffffffffffffffffff1681526020019081526020016000208190806001815401808255809150506001900390600052602060002001600090919091909150556001600760008473ffffffffffffffffffffffffffffffffffffffff1673ffffffffffffffffffffffffffffffffffffffff168152602001908152602001600020805490506124a99190612d6d565b60086000838152602001908152602001600020819055505050565b600073ffffffffffffffffffffffffffffffffffffffff168273ffffffffffffffffffffffffffffffffffffffff1614156040518060400160405280600681526020017f30303330303100000000000000000000000000000000000000000000000000008152509061256c576040517f08c379a00000000000000000000000000000000000000000000000000000000081526004016125639190612cd8565b60405180910390fd5b50600073ffffffffffffffffffffffffffffffffffffffff166001600083815260200190815260200160002060009054906101000a900473ffffffffffffffffffffffffffffffffffffffff1673ffffffffffffffffffffffffffffffffffffffff16146040518060400160405280600681526020017f303033303036000000000000000000000000000000000000000000000000000081525090612647576040517f08c379a000000000000000000000000000000000000000000000000000000000815260040161263e9190612cd8565b60405180910390fd5b5061265282826122c7565b808273ffffffffffffffffffffffffffffffffffffffff16600073ffffffffffffffffffffffffffffffffffffffff167fddf252ad1be2c89b69c2b068fc378daa952ba7f163c4a11628f55a4df523b3ef60405160405180910390a45050565b60008060007fc5d2460186f7233c927e7db2dcc703c0e500b653ca82273b7bfad8045d85a47060001b9050833f91506000801b82141580156126f45750808214155b92505050919050565b80600073ffffffffffffffffffffffffffffffffffffffff166001600083815260200190815260200160002060009054906101000a900473ffffffffffffffffffffffffffffffffffffffff1673ffffffffffffffffffffffffffffffffffffffff1614156040518060400160405280600681526020017f3030333030320000000000000000000000000000000000000000000000000000815250906127d9576040517f08c379a00000000000000000000000000000000000000000000000000000000081526004016127d09190612cd8565b60405180910390fd5b5060006001600084815260200190815260200160002060009054906101000a900473ffffffffffffffffffffffffffffffffffffffff16905061281b83611fc7565b6128258184612000565b82600073ffffffffffffffffffffffffffffffffffffffff168273ffffffffffffffffffffffffffffffffffffffff167fddf252ad1be2c89b69c2b068fc378daa952ba7f163c4a11628f55a4df523b3ef60405160405180910390a4505050565b60008135905061289581612f4e565b92915050565b6000813590506128aa81612f65565b92915050565b6000813590506128bf81612f7c565b92915050565b6000815190506128d481612f7c565b92915050565b60008083601f8401126128f0576128ef612eda565b5b8235905067ffffffffffffffff81111561290d5761290c612ed5565b5b60208301915083600182028301111561292957612928612edf565b5b9250929050565b60008135905061293f81612f93565b92915050565b60006020828403121561295b5761295a612ee9565b5b600061296984828501612886565b91505092915050565b6000806040838503121561298957612988612ee9565b5b600061299785828601612886565b92505060206129a885828601612886565b9150509250929050565b6000806000606084860312156129cb576129ca612ee9565b5b60006129d986828701612886565b93505060206129ea86828701612886565b92505060406129fb86828701612930565b9150509250925092565b600080600080600060808688031215612a2157612a20612ee9565b5b6000612a2f88828901612886565b9550506020612a4088828901612886565b9450506040612a5188828901612930565b935050606086013567ffffffffffffffff811115612a7257612a71612ee4565b5b612a7e888289016128da565b92509250509295509295909350565b60008060408385031215612aa457612aa3612ee9565b5b6000612ab285828601612886565b9250506020612ac38582860161289b565b9150509250929050565b60008060408385031215612ae457612ae3612ee9565b5b6000612af285828601612886565b9250506020612b0385828601612930565b9150509250929050565b600060208284031215612b2357612b22612ee9565b5b6000612b31848285016128b0565b91505092915050565b600060208284031215612b5057612b4f612ee9565b5b6000612b5e848285016128c5565b91505092915050565b600060208284031215612b7d57612b7c612ee9565b5b6000612b8b84828501612930565b91505092915050565b612b9d81612da1565b82525050565b612bac81612db3565b82525050565b6000612bbd82612d35565b612bc78185612d4b565b9350612bd7818560208601612e15565b612be081612eee565b840191505092915050565b6000612bf682612d40565b612c008185612d5c565b9350612c10818560208601612e15565b612c1981612eee565b840191505092915050565b6000612c31603483612d5c565b9150612c3c82612eff565b604082019050919050565b612c5081612e0b565b82525050565b6000602082019050612c6b6000830184612b94565b92915050565b6000608082019050612c866000830187612b94565b612c936020830186612b94565b612ca06040830185612c47565b8181036060830152612cb28184612bb2565b905095945050505050565b6000602082019050612cd26000830184612ba3565b92915050565b60006020820190508181036000830152612cf28184612beb565b905092915050565b60006020820190508181036000830152612d1381612c24565b9050919050565b6000602082019050612d2f6000830184612c47565b92915050565b600081519050919050565b600081519050919050565b600082825260208201905092915050565b600082825260208201905092915050565b6000612d7882612e0b565b9150612d8383612e0b565b925082821015612d9657612d95612e48565b5b828203905092915050565b6000612dac82612deb565b9050919050565b60008115159050919050565b60007fffffffff0000000000000000000000000000000000000000000000000000000082169050919050565b600073ffffffffffffffffffffffffffffffffffffffff82169050919050565b6000819050919050565b60005b83811015612e33578082015181840152602081019050612e18565b83811115612e42576000848401525b50505050565b7f4e487b7100000000000000000000000000000000000000000000000000000000600052601160045260246000fd5b7f4e487b7100000000000000000000000000000000000000000000000000000000600052603160045260246000fd5b7f4e487b7100000000000000000000000000000000000000000000000000000000600052603260045260246000fd5b600080fd5b600080fd5b600080fd5b600080fd5b600080fd5b6000601f19601f8301169050919050565b7f44654365727420646f65736e277420616c6c6f77207472616e73666572206f6660008201527f206261646765732f636572746966696361746573000000000000000000000000602082015250565b612f5781612da1565b8114612f6257600080fd5b50565b612f6e81612db3565b8114612f7957600080fd5b50565b612f8581612dbf565b8114612f9057600080fd5b50565b612f9c81612e0b565b8114612fa757600080fd5b5056fea26469706673582212208328afe851c2fc8d6138e78b0af35b1d2c77b29122f98ef3449b1bd61ba4078a64736f6c63430008060033",
  "linkReferences": {},
  "deployedLinkReferences": {}
}